:0200000280007C
:100000000080082035040800050D0800050D0800D3
:10001000050D0800050D0800050D08000000000092
:10002000000000000000000000000000070D0800B4
:10003000050D0800000000000B0D08000F0D080062
:10004000050D0800050D0800050D0800050D080048
:10005000050D0800050D0800050D0800050D080038
:10006000C1040800050D0800000000006D0A08002A
:10007000A50A080065020800DD0A0800000000006B
:1000800000000000D5040800E1040800050D080088
:10009000ED040800050D0800050D0800050D080019
:1000A000050D080000000000050D0800050D080002
:1000B000050D0800050D0800050D0800050D0800D8
:1000C000050D0800050D0800050D0800050D0800C8
:1000D000050D0800050D0800050D0800050D0800B8
:1000E000AD040800050D0800050D0800050D080009
:1000F000050D080010B5054C237833B9044B13B136
:100100000448AFF300800123237010BDE4080720EA
:1001100000000000B034080008B5064B1BB10648CB
:100120000649AFF300800648036813B1054B03B1DD
:10013000984708BD00000000B0340800E808072018
:10014000B034080000000000704770B50020C4B251
:10015000944208D253F8204051F8205026680130CC
:1001600035432560F3E770BD70B50020C4B29442FA
:1001700008D253F8204051F8205026690130354309
:100180002561F3E770BD116370475163704700004C
:100190002DE9F846DDF8289092461F460E460025C8
:1001A000EBB2534546D2244C48460B2100F048F8A8
:1001B0004FF40063236048460C2100F041F84FF4EF
:1001C0008053236048460D2100F03AF84FF4005365
:1001D000236048460E2100F033F84FF4804323603B
:1001E00057F8254056F8042B236C1343089A2364D0
:1001F000535DEBB1D4F8C02056F8043C1343099A80
:10020000C4F8C030535D56F8041C2BB1D4F8D43078
:100210001943C4F8D41004E0D4F8D0301943C4F81A
:10022000D010D4F8B02056F8043C1343C4F8B030D2
:100230000135B5E7BDE8F88600E100E07047000051
:100240001E294FF0010202D8044B186802E0044B4B
:10025000203918688A4002431A60704710060E4021
:1002600000070E40054B064AD96C1160DA6B054B4E
:100270001A60054B01221A70704700BF00120E4031
:1002800014090720180907200409072070B5104E2B
:10029000104D114C296822683068FFF774FF012067
:1002A00000F0D6FB306829682268FFF76EFF4FF434
:1002B0008C73013B7FF4FDAF084B1A783AB10022F2
:1002C00007480849BDE870401A7000F05BBD70BD7A
:1002D00024090720100907203C00072004090720F3
:1002E0003C0A072060280800054B06491A68064B9F
:1002F0000A601B684B6005490A60054A1360704735
:100300006000072008090720640007201009072063
:100310001C0907202DE9F043384C85B04FF4E1313A
:10032000204600F085FE012000F0FCFC344F05461D
:10033000FFF784FF01203D6000F0F4FCDFF8EC8063
:10034000304D314E8146FFF7FFFE484641462B4671
:100350000422C6F80090FFF7F8FE306841462B46AD
:10036000DFF8CC80294D0422FFF7FEFE30682849D3
:100370000222284BFFF7E9FE2B4630684146012256
:10038000FFF7F2FE2A68244D3068D8F80010FFF716
:10039000FAFEA96820460A2200F023FDA96920463A
:1003A0000A2200F01EFDA96B20460A2200F019FD6A
:1003B0001A4B306800931A4B1A4901933B6801228B
:1003C0000293194BFFF7E4FEA96C20460A2200F0C5
:1003D00008FDD5F8B81020460A2200F002FDD5F835
:1003E000C81020460A2200F0FCFCD5F8D8102046A0
:1003F0000A2205B0BDE8F04300F0F3BC3C0A072038
:10040000000907202C000720240907203C000720B2
:10041000080907204400072000120E404000072072
:10042000200907201C0907205C0007204C0007203A
:1004300010090720154B164A10B593421C4601D0EF
:10044000002301E0134B07E01349D0188842F9D28A
:10045000E158D1500433F7E7104A934203D2002207
:1004600043F8042BF8E70E490E4B21F0604201F1EE
:10047000604122F07F02B1F5801F9A6003D29A6832
:1004800042F000529A60084B9847FEE7B0340800EB
:1004900000000720E4080720E4080720B412072022
:1004A0000000080000ED00E09510080008B5024BC0
:1004B0001B6803B1984708BD280907207047000052
:1004C000014800F0B9BD00BF3C0A072070477047E3
:1004D00070470000014800F0AFBD00BFE80A0720E8
:1004E000014800F0A9BD00BF100B0720014800F033
:1004F000A3BD00BF380B07202DE9F0413F4D00F0B0
:1005000063FA2B684FF47A72B3FBF2F35A1E3C4B3A
:10051000F0215A603B4A002482F8231007229C6095
:100520001A6001F08FFCA84620460021013400F03B
:1005300075FB4F2CF8D1344C344E354F354B4FF0C2
:10054000FF35C4F8A0504FF44072C6F8A0502046C2
:10055000C3F8A05001210023C7F8A05000F085F98E
:100560000020012100F05AFB204601214FF4406297
:10057000002300F07AF9204601214FF44052002375
:1005800000F073F9384602213022002300F06DF9A3
:10059000304601214FF44062002300F066F9204606
:1005A00001210322002300F060F901214FF44042B1
:1005B0000023304600F059F9252000F0C7F8D8F89C
:1005C0000010154A0C23154800F084F90123134844
:1005D00000214FF4401200F0DEF900210A460F48D6
:1005E00000F0C4F929460D4800F0EBF90B4800F083
:1005F000E4F9BDE8F04100F084BB00BF68000720CB
:1006000010E000E000ED00E0000E0E4000100E4093
:1006100000140E4000120E40002D310100000C406D
:100620002DE9F743234D244C284600F01BFC2046BF
:1006300000F018FCDFF8B490082213461F4900951B
:1006400001941F4F1F4800F0A9FC1F4D484600F0C1
:1006500009FCDFF89C80384600F004FC1B4E28465D
:1006600000F000FC1A4C404600F0FCFB304600F065
:10067000F9FB204600F0F6FB11221346CDF800905E
:10068000CDF804801349144800F0DAFB1222134617
:10069000009701961149124800F0D2FB14220095F0
:1006A000019410491346104800F0CAFB03B0BDE89E
:1006B000F08300BF600A0720B409072000080E403D
:1006C000480D07203C0A0720D00D0720600B0720AB
:1006D000E80B072000800940E80A072000C0094015
:1006E000100B072000400A40380B0720C00C0720E1
:1006F0002C09072008B50C4800F0D0FB08B1FFF723
:10070000DDFE0A4800F0CAFB08B1FFF7DFFE08482B
:1007100000F0C4FB08B1FFF7DAFE064800F0BEFBAC
:1007200008B1FFF7D5FE08BD3C0A0720E80A0720FC
:10073000100B0720380B0720034B4FF44412DA61EB
:100740009A6E5206FCD5704700060E402C2819D828
:100750001F280E4B4FF0010208D802FA00F09969E9
:1007600000EA010282420FD018610DE0203802FA3F
:1007700000F0D3F8081100EA0102824204D0C3F865
:10078000000101E0012070470020704700060E4084
:100790002C2817D81F280D4B4FF0010107D801FA5C
:1007A00000F09A69024082420ED15A610CE0203872
:1007B00001FA00F0D3F808210240824204D1C3F8C4
:1007C000042101E0012070470020704700060E4020
:1007D000000200F47062024B42F001029A6370471B
:1007E00000060E40014B20221A60704700060E40A2
:1007F0000AB14166704701667047426405290DD809
:10080000DFE801F00D03090D0D0D036F016F0B40C3
:1008100023EA020301E0036F13430367426070475A
:10082000D30741644CBF4166016612F00A0F14BF42
:1008300001624162930701D4130701D5C0F880100B
:1008400041610160704710B5029C41640CB1416682
:1008500000E001660BB1016500E041650AB101638A
:1008600000E041630161016010BDF7B51E464B1EFB
:1008700005460F461446042B1FD8DFE803F0030398
:100880000C1212002246FFF7B8FFF2076C644CBF4F
:100890006C662C6603E021463246FFF7C1FF01205B
:1008A0000CE006F0010300937B1F5A425A41214697
:1008B000C6F38003FFF7C7FFF1E7002003B0F0BDE8
:1008C00003468068084004D09B6919420CBF002091
:1008D000012070472DE9F041224D90B06C4606464C
:1008E0000F4690469C460FCD0FC40FCD0FC40FCDC1
:1008F0000FC495E80F0084E80F0001233360002146
:100900004FEA480240F202237160C6F82031C6F86F
:100910000411C6F81411B7FBF2F102FB117202B90F
:1009200001394B1C5B00B7FBF3F70F4B0022B7FB01
:10093000F3F70CFB07FC5DF82200604505D201329D
:10094000102AF8D14FF0FF3009E07368090289B22C
:100950001204194302F470220A437260002010B09E
:10096000BDE8F0819832080040420F004368D2078A
:1009700023F08F03436004D5436843F08003436052
:100980007047CB0706D5436801F00E0143F0010321
:1009900019434160704710B54468090622431B079C
:1009A00001F07064224303F040531A43426010BDCB
:1009B000012303FA01F1416170474FF6FF73436170
:1009C00070478162704700001A4A4FF480631360D9
:1009D000C2F80032184B1A6AD20102D5174A1A62BD
:1009E00005E0174A1A629A6ED007FCD5F6E7996EB1
:1009F000114AC903FBD5116B21F0030141F001013C
:100A000011639A6E1207FCD50E490B4A91629A6ED9
:100A10009007FCD5084A112111639A6E1107FCD585
:100A2000054A122111639A6E1207FCD5064A074B3C
:100A30001A607047000A0E4000060E400908370190
:100A400009083700013F0D2000BD0105680007209F
:100A500038B5044648B101F0E5F9054600F016F94D
:100A600001F0E0F9401BA042F8D338BD38B50B4B7C
:100A7000DC6CB4FA84F3DBB21F2B0DD8C3F11F0377
:100A8000DDB2074B53F8253003B19847012303FA31
:100A900005F524EA0504ECE738BD00BF000E0E4062
:100AA000580E072038B50B4BDC6CB4FA84F3DBB27C
:100AB0001F2B0DD8C3F11F03DDB2074B53F82530B0
:100AC00003B19847012303FA05F524EA0504ECE78E
:100AD00038BD00BF00100E40D80E072038B50B4BB4
:100AE000DC6CB4FA84F3DBB21F2B0DD8C3F11F0307
:100AF000DDB2074B53F8253003B19847012303FAC1
:100B000005F524EA0504ECE738BD00BF00140E40EB
:100B1000580F07202DE9F0413D4E1C2303FB0063D5
:100B20001A7B04460F46002A70D03A4D2A5C02F028
:100B30000F02042A03D13848597EFFF739FF2A5D96
:100B400002F00F03022B11DC82B1022B02D16FB92C
:100B5000BDE8F081012B03D1022F07D1BDE8F08160
:100B6000032B03D1012F03D1BDE8F081012F32D037
:100B70001FB1022F17D0BDE8F0814FF01C0808FB11
:100B800004F806EB0807B868FFF7E0FD002356F805
:100B9000080003217A68FFF768FE2B5D23F00F033E
:100BA00043F0020314E04FF01C0808FB04F806EBC6
:100BB0000807B868FFF7CAFD012356F808000321AB
:100BC0007A68FFF752FE2B5D23F00F0343F0010319
:100BD0002B55BDE8F0811C236343F75812091E44CE
:100BE0000CBF04210521336938467268FFF73DFECA
:100BF0002B5D23F00F0343F003032B55BB69013337
:100C000004D1B068BDE8F041FFF7C2BDBDE8F08196
:100C10006C280800700C072000000C40F7B5194E36
:100C20001C2303FB00631B7B04460D4643B3164F96
:100C30003B5C03F00F03052B02D10121FFF76AFF94
:100C40003B5D03F00F0343EA05133B551C235C4354
:100C5000331936595C6830462146FFF731FE38B902
:100C6000304621462A4603B0BDE8F040FFF7C0BD3C
:100C700001230093304621462A460023FFF7E3FD77
:100C800003B0F0BD6C280800700C072070470020EE
:100C90007047FEE7044B1A680AB9044A1A601A68DA
:100CA0001044186010467047D80F0720B412072070
:100CB0004FF0FF3070474FF0FF3070474FF4005354
:100CC0004B600020704701207047002070470020D3
:100CD0007047000010B50023934207DA05484469C5
:100CE000A407FBD5CC5C0133C461F5E722EAE270CE
:100CF00010BD00BF00080E40FEE770474FF0FF3008
:100D000070477047FEE7FFF7C4BFFFF7C2BF08B5E3
:100D1000FFF7BDFF28B900F07DF8BDE8084001F0FD
:100D200079B808BD01F0B6B8F8B505460E461746C5
:100D30000024BC4207D02B6828461B68315D9847C9
:100D400008B10134F5E72046F8BD08B50368C9B21B
:100D50001B68984708BD38B505460C46084641B1A2
:100D600001F09CFB2B6802465B68284621469847A9
:100D700038BD38BD08B50249FFF7EDFF08BD00BF1B
:100D8000D832080038B50446FFF7E5FF054620468F
:100D9000FFF7F0FF284438BD70B50B468AB000213C
:100DA0008DF82410012A98BF0A220DF12305B3FB08
:100DB000F2F402FB1433DEB2092E94BF303637361C
:100DC000F6B22946234605F80169002CEFD1FFF75A
:100DD000C2FF0AB070BD0AB9FFF7B7BFD2B2FFF7C2
:100DE000DBBF38B50446FFF7F6FF05462046FFF7A0
:100DF000C1FF284438BD0000014B1860704700BF98
:100E00006C000720024B4FF0FF321A60704700BFA2
:100E10006C000720054A08B51368591C04D0013B33
:100E200013600BB9024B984708BD00BF6C00072048
:100E300001000720012070474FF40C6200F0C0B899
:100E400073B5069D04460095079D0E46019500F07A
:100E5000A5F8034B20462360666202B070BD00BF58
:100E6000F032080010B500218022044601F0B6FAE5
:100E70000023C4F880302046C4F8843010BDD0F878
:100E80008030D0F88420013303F07F03934204D0F4
:100E9000D0F880208154C0F8803070470369D3F8BF
:100EA0008000D3F88430C01A00F07F0070470369D7
:100EB000D3F88010D3F8842091421DBFD3F884204A
:100EC000985CC0B24FF0FF3070470369D3F88010D0
:100ED000D3F8842091420AD0D3F88420985CD3F8C8
:100EE0008420013202F07F02C3F8842070474FF063
:100EF000FF3070474369D3F88010D3F884209142C3
:100F0000F9D1826953699B05FCD57047836970B537
:100F10005E694269B607D2F88450D2F8804001D5A4
:100F2000A54218D0D2F880400C4B01342340002B4E
:100F300003DA013B63F07F030133D2F884409C4223
:100F4000FBD0D2F8804011554269C2F880308369E5
:100F500002229A6000E0D961012070BD7F0000800C
:100F6000036910B5D3F884200446C3F880200368D1
:100F70005B699847237F012259B203F01F0302FAED
:100F800003F34909044A203142F82130206ABDE8C0
:100F90001040FFF7FDBB00BF00E100E030B50025C9
:100FA00045604FF47A758560044D81610560039D4D
:100FB00002770561049D0362456130BD203308005E
:100FC00070B50446006A0D461646FFF7BFFBA369DD
:100FD00040F20222C3F82021AC221A60124A5E605D
:100FE00012680121B2FBF5F52D094FF0FF321D62A9
:100FF000DA6061229A60227F50B202F01F0201FA89
:1010000002F20A49400941F8202021690022C1F872
:101010008420C1F880206169C1F88420C1F8802053
:1010200050221A6070BD00BF6800072000E100E098
:101030004FF40062FFF7C4BF38B5836904465D69A9
:10104000EA0704D599690069C9B2FFF718FFAB0731
:1010500016D56369D3F88410D3F880209142A26931
:101060000CD0D3F88410595CC9B2D161D3F8842074
:10107000013202F07F02C3F8842001E00223D36032
:1010800015F0600F04D0A3691A6842F480721A60E8
:1010900038BD704708B500F0CBFEFFF72DFAFFF71B
:1010A000F8FF0120FFF7D4FC064800F059F9FFF7DC
:1010B00031F9FFF7EBF8044B002BFAD0FFF71AFBDE
:1010C000F7E700BFEC0F0720F5060800064BD3F842
:1010D0003021D20703D45B68D90703D4F6E7012295
:1010E000C3F86021704700BF00C00A4038B5094B03
:1010F0001D6872B6BFF35F8F1C4600F00F0000231F
:10110000236000F045FE25B101232360BFF35F8F0C
:1011100062B638BDA40007202DE9F8431B4B894671
:101120001B6815463BB31A4BD3F8008072B6BFF369
:101130005F8F00F00F04002620461F461E6000F05F
:1011400027FEA84238BF0546AE4206D0204600F032
:10115000E7FD09F806000136F6E71DB1204600F06C
:1011600017FE78B1B8F1000F09D001233B60BFF33F
:101170005F8F62B603E04FF0FF30BDE8F88328468A
:10118000BDE8F883204600F00DFEEBE7F80F0720DE
:10119000A400072007B501220DF1070100F00F00A0
:1011A000FFF7BAFF01280CBF9DF807004FF0FF3092
:1011B00003B05DF804FB0000114B2DE9F0411B6802
:1011C00080460D461746B3B114468CB1B8F1000FF6
:1011D00014BF4FF400764026A64228BF2646294673
:1011E00008F00F003246A41B00F046FD3544ECE742
:1011F0003846BDE8F0814FF0FF30BDE8F08100BF18
:10120000F80F07202DE9F0410C4B0D4F15461B88B8
:101210003A8888469A420BD22C46002644B108EB05
:1012200006012246002000F027FD0644241AF5E7B7
:101230003B8828462B443B80BDE8F081F40F072013
:10124000DC0F0720F8B5012900AF06460C4628DD63
:10125000CB1D23F00703ADEB030D01F01FF90130A7
:10126000400003238DF800006D468DF80130701E9C
:101270000222A2420DDA10F8013F53B1511CC9B24B
:10128000A142AB5404D0002302326B54D2B2F0E737
:10129000224600202946FFF7B5FF003018BF012085
:1012A00000E00020BD46F8BD38B50C46054600F00C
:1012B000B3FC00202946224600F046FD00F0C0FCA9
:1012C000204638BD037910B504461BB9BDE810406F
:1012D00000F08EBB00F0C4FA2146BDE8104000F0DB
:1012E000AFBA13B5002302AC04F8013D204600F06C
:1012F0006BFB00F0B5FA214600F072FA9DF807008A
:1013000002B010BD13B5002302AC04F8013D204625
:1013100000F064FB00F0A4FA214600F061FA9DF8A9
:10132000070002B010BD10B5044600F031FD20B139
:101330002046BDE8104000F049BD10BD10B5044680
:10134000054800F09FFB00F0A3FB10B9034B0122FE
:101350001A60204610BD00BF8D130800E80F07205B
:1013600008B5054B186828B100F0F2FB034B0022CA
:101370001A60012008BD00BFE80F0720F80F072002
:101380000148FFF7DBBF00BFEC0F07202DE9F04756
:10139000AC4C88B063681F0717D52368002023F082
:1013A0007F032360236842F2320143F0800323600D
:1013B00000F0F6FBA44B04221A604FF48053A361A3
:1013C000A24B00221A600823A3609E4B5B685E0458
:1013D00008D59F4B02201860FFF788FE10B19D488A
:1013E00000F0A4FA974B5A68550744BF04229A604C
:1013F0005B68DC0440F1E28100F02EFC002800F084
:10140000DD81002001A9082200F09EFC00F02CFCE8
:101410009DF80450280602D500F0F6FB01E000F02C
:1014200003FC15F0600440F0B4819DF8053073B9F9
:101430009DF80440ACB1884B1B780020012B14BFF1
:101440000146012100F05AFC0020014697E1012BE2
:101450000DD19DF80630012B01D1804BECE77E4B7E
:101460001C702046214600F049FC2046EDE7032B86
:1014700075D19DF80630012B05D1784A20462146CA
:10148000137000F03BFC9DF8060028B9724B012256
:1014900001461A7000F032FC9DF80630022B40F035
:1014A00085819DF80430002B40F08081BDF8083024
:1014B000190740F07B81634C1B0A6269013B22F0F3
:1014C00001026261226842F400622260032B00F292
:1014D0006D81DFE803F031383F02FFF7F7FD0023AD
:1014E000C4F81833C4F8283341F23013C4F8083173
:1014F000D4F8083143F00203C4F80831514BD3F853
:1015000038215203FAD5DA6942F00402DA61544B09
:10151000544A9A5C03F8012F534A9342F8D1494B3D
:101520001A6842F400421A600122C3F868214FF49D
:101530008042C3F82822FEE7FFF7C8FD236843F482
:1015400000532360FEE7FFF7C1FD236843F48043A7
:101550002360FEE7FFF7BAFD444B6361FEE7052B0E
:1015600006D100F051FB9DF8060000F043FC1DE1A0
:10157000062B40F0DC809DF807603D4D022EBDF843
:101580000A903C4F2C8028D13C80FFF7AAFE4FF0F8
:10159000090882462146424603A800F01FFF0123A6
:1015A0008DF81130C0238DF81330FA238DF81430E4
:1015B0002B8803A9434442462046ADF80E308DF8EF
:1015C0000C808DF80D608DF810A02C80A7F800908D
:1015D000FFF718FEFFF785FEE8E0A7F8009000F09F
:1015E0003FF901A900F010F9002803D0D4BF002072
:1015F0000120DAE0012E10D1BDF80A201E4B082A86
:1016000004BF0121196018681C491D4B002808BF40
:101610001946112A00F2868048E0032E48D19DF831
:10162000063033B91749BDF80A200B7893423DD8EC
:1016300078E0022B01D1144833E0012B28D1134864
:101640002FE000BF00C00A40F0C10A40F80F072099
:1016500068C10A4014120720DE0F0720E40F07209C
:10166000FFFF18206B33EFDF340019207FF0077E77
:10167000DC0F0720F40F0720E00F0720AB33080032
:101680005433080066330800483308009F330800CD
:10169000032B40F08E8000F0E3F803A900F0C2F8BD
:1016A00003A8BDF80A10FFF7CDFD7EE0D2B238E006
:1016B000062E06D1BDF80A20092A7DD8D2B24149AA
:1016C0002FE0072E4FF0000473D1BDF80A902C8054
:1016D0003C80FFF717FE4FF009088246214642463C
:1016E00003A800F07BFE01238DF81130C0238DF894
:1016F0001330FA238DF814302B8803A94344424653
:101700002046ADF80E308DF80C808DF80D608DF808
:1017100010A02C80A7F80090FFF774FDFFF7F2FDF2
:1017200044E002B90A780020FFF76CFD3EE0072B89
:101730003FD0082B04D1244B20461968C9B21EE0C3
:10174000092B17D1EB0634D10021204850F8213065
:101750000BB10131F9E700F039FA9DF806201A4B78
:101760001A601B4B02221A604FF48042A3F5FC73EF
:101770009A611BE00A2B05D1164B0020197800F066
:10178000BDFA13E00B2B11D19DF80620114B1A6006
:101790000CE000F039FA104B00211980BDF80A2046
:1017A0000E4B01A81A80FFF78DFD10B100F03CFA36
:1017B00004E000F0E3FA01E00249B3E708B0BDE855
:1017C000F08700BFBD330800F80F07207000072026
:1017D000F8C10A40F00F0720DC0F0720F40F0720A4
:1017E00070B544680E4600254CB1236820465B68FE
:1017F00031469847002804DB0544E468F4E72846AE
:1018000070BD4FF0FF3070BD38B544680D463CB137
:10181000236820469B682946984710B9E468F6E794
:10182000204638BD38B544680D463CB12368204693
:101830002946DB689847E4680544F6E72C7038BD14
:1018400038B544680D463CB1236820461B682946DC
:10185000984718B9E468F6E7204638BD012038BD3E
:10186000074A136813F0010107D1064B02201870D4
:10187000042058705960012313600248704700BF6C
:1018800004100720FC0F0720044BD3F80002D3F804
:101890000432C01AC0F30800704700BF08100720C8
:1018A00040F2FF1070470000064BD3F80012D3F847
:1018B000042291421ABFD3F80422985C4FF0FF3003
:1018C000704700BF0810072013B5026802AB03F889
:1018D000011D546819460122A04702B010BD000046
:1018E00038B50F4B0446D3F80012D3F804229142C6
:1018F00013D0D3F8042202209D5CD3F804220132D5
:10190000C2F30802C3F80422FFF7F0FB18B1236802
:101910002046DB699847284638BD4FF0FF3038BD78
:10192000081007200320FFF7FEBC0000F8B5184B95
:1019300053E8003F164E13B1BFF32F8FF8BD0123BC
:1019400046E80033002BF2D1124BD3F800421F4679
:101950000134C4F30804D7F804320E4D9C4214D06D
:101960000220FFF7C3FB20B90B4B4FF480421A60F3
:101970000BE00220FFF70EFCD5F80032C5F800425C
:101980000134E854C4F30804E5E700233360F8BDEC
:10199000101207200810072028C20A4010B5094B72
:1019A0000446DB7903F0FF0043B10320FFF704FC9A
:1019B000002805DC01236360002010BD0123636063
:1019C00010BD00BF9C000720037803490233037059
:1019D00042220020FFF716BC323408000378034986
:1019E0000233037042220020FFF70CBCF0330800E2
:1019F00008B502784378A12A08D1212B4FF00000C6
:101A000029D117490722FFF7FDFB25E0212A25D11F
:101A1000202B04D107211248FFF746FC1CE0222BA3
:101A200010D182780E4BDA711A68B2F5966F13D125
:101A3000DB79DB0703D4FA20FFF7DEF90CE0FFF7D0
:101A4000E1F909E0232B09D18378C27843EA022225
:101A5000044B1A6000E008BD012008BD002008BD4D
:101A60009C00072098000720044B00225A604FF486
:101A70007A729A60024A1A60704700BF14120720F7
:101A8000D0330800014B1860704700BF28090720B9
:101A900010B500232A4A002442F82340294A42F87C
:101AA000234001330A2BF5D12820FEF74FFEFEF725
:101AB00043FE2046FEF78CFEFEF794FE224B4FF4C9
:101AC000807283F828435A60204B2046D3F80028C0
:101AD00022F08072C3F80028D3F8002842F0007288
:101AE000C3F80028D3F8002822F08072C3F8002839
:101AF000D3F8002822F48052C3F80028D3F8002835
:101B000042F48052C3F80028D3F8002842F400427F
:101B1000C3F80028D3F8002822F48042C3F8002834
:101B20001A6822F480521A601A6822F440621A601D
:101B3000D3F8002842F48042C3F8002810BD00BF4B
:101B4000501207202812072000E100E000C00A40E0
:101B5000114B10B5196872B6BFF35F8F1A46002398
:101B600013600E4BD3F800081C4620F48040C3F8E5
:101B70000008D4F80408094B4004FAD5186820F48A
:101B8000807018600820986121B101231360BFF3B1
:101B90005F8F62B610BD00BFA400072000C00A40DE
:101BA000094B00F00F0000F1400243F8221001221F
:101BB0008240D9690A43DA6103F5987353F82030FB
:101BC0005B0300D4FEE7704700C00A4030B5012334
:101BD0008B4214D20A4A50F8045F03F1400442F8E1
:101BE000245001249C40D5692C43D461054A1A44F1
:101BF00092001268520300D4FEE70133E8E730BDDB
:101C000000C00A404CB00210024BD3F83031DB0761
:101C1000FAD5704700C00A40024BD3F830319B0719
:101C2000FAD5704700C00A40034B0122C3F8602177
:101C3000024B00221A60704700C00A405012072071
:101C4000034B0222C3F86021024B00221A60704746
:101C500000C00A4028120720024BD3F8300100F0E0
:101C60000400704700C00A40024B0422C3F8602100
:101C7000704700BF00C00A40F8B51546C20302F124
:101C80000052034602F5C012980000F1804000F5B2
:101C90002C24D4F83041E407F6D5174C3BB926681C
:101CA0002E44402E06D92568C5F1400502E00026E5
:101CB00044F8236054F8236016440022AA4203D05B
:101CC0008F5CB7540132F9E754F823202A4444F8D2
:101CD000232033B9084B1B68402B0BD1FFF7A4FF1F
:101CE00008E000F52C230122C3F860214FF4804264
:101CF000C3F820222846F8BD50120720074B53F89E
:101D0000202002EBC03202F1005202F5C012117025
:101D100053F82020013243F820207047501207204A
:101D2000084A034652F8201001EBC03101F100517E
:101D300001F5C011087852F82310013142F8231040
:101D4000704700BF2812072070B50B4CC30303F186
:101D5000005354F8205003F5C0131D440023934250
:101D600003D0EE5CCE540133F9E754F8202013443D
:101D700044F8203070BD00BF28120720034B012219
:101D8000DA614FF40022C3F8F021704700C00A4026
:101D9000034B4C3053F82000C0F30A50704700BF8B
:101DA00000C00A40830003F1804303F52C23022284
:101DB000C3F860214FF48042C3F82022024B002276
:101DC00043F82020704700BF28120720830003F14A
:101DD000804303F52C230122C3F860214FF4804295
:101DE000C3F82022024B002243F82020704700BF96
:101DF00050120720064B00F07F001A6822F07F0285
:101E000002431A601A6842F080021A60704700BFED
:101E100000C00A40024B1A6801321A60704700BFC6
:101E200078120720014B1868704700BF781207200E
:101E3000014800F003B800BF501A0E404FF40043B1
:101E40004360704770B50F4E0F4D761BB61007D02C
:101E5000043D0024013455F8043F9847A642F9D1C7
:101E60000A4E0B4D01F00AFB761BB61008D0043D5C
:101E70000024013455F8043F9847A642F9D170BDBB
:101E800070BD00BF8834080088340800A034080002
:101E900088340800024B0146186800F003B800BF00
:101EA000D00407202DE9F04F01F10B05162D83B06A
:101EB000064627D935F0070527D4A94225D830464C
:101EC00000F0D6FAB5F5FC7F26D2C14F4FEAD50C0B
:101ED00007EBCC03DC689C4200F0D2816368E268C7
:101EE00023F0030323445868A16840F00105CA6049
:101EF000304691605D6000F0BDFA0834204603B0C2
:101F0000BDE8F08F1025A942D9D900240C23204622
:101F1000336003B0BDE8F08F5FEA552C00F0898094
:101F2000BCF1040F00F260814FEA951C0CF1380CF3
:101F30004FEA4C01A64F07EB8101CC68A14205D1C5
:101F40000CE0002B79DAE468A14207D0626822F045
:101F50000302531B0F2BF4DD0CF1FF3C0CF1010CC1
:101F60009B4B3C6903F1080E744500F07E8161686B
:101F700021F003014A1B0F2A00F36481002AC3F8F1
:101F800014E0C3F810E069DAB1F5007F80F03A811F
:101F9000C9088A104FF0010808FA02F803EBC101E2
:101FA0005A68886848EA0202A060E1605A608C6062
:101FB000C4604FEAAC030120984090425BD80242D3
:101FC00006D12CF0030C400002420CF1040CFAD0B4
:101FD00007EBCC084446E146E3689C4207D146E162
:101FE000002A80F25781DB689C4200F040815968EA
:101FF00021F003014A1B0F2AF2DD1C4654F808CFDA
:10200000D96845F0010942F001081D44C3F8049065
:102010003046CCF80C10C1F808C07D613D61C5F8B0
:102020000CE0C5F808E0C5F80480AA5000F022FAD8
:1020300064E77E214FF03F0C7CE722445068E36860
:10204000A16840F00105CB6030469960556000F012
:1020500011FA0834204603B0BDE8F08F21444B68E4
:10206000304643F001034B6000F004FA0834204688
:1020700003B0BDE8F08FBC68636823F00309A9458D
:1020800004D3C5EB09030F2B00F39180514B524A47
:102090001968136805EB010A013304EB090B00F022
:1020A00061810AF5805A0AF10F0A2AF47F6A2AF040
:1020B0000F0A30465146019200F0DEF9B0F1FF3FC1
:1020C0008046019A00F00181834500F2FB80DFF831
:1020D00014C1C345DCF800305344CCF8003000F0A4
:1020E0004A8112683C4901321BBFCBEB080B5B44B1
:1020F000C1F80080CCF8003018F0070300F014811C
:10210000C3F10802C3F5805390440833C244CAF3B4
:102110000B0ACAEB030A51463046CDF804C000F062
:10212000ABF9431CDDF804C000F03581C8EB0002B8
:10213000524442F00102DCF80030BC425344C7F87C
:102140000880CCF80030C8F80420DFF898A015D03B
:10215000B9F10F0F40F2EB806168A9F10C0222F097
:10216000070201F0010142EA010E0520A1180F2A21
:10217000C4F804E04860886000F21181174ABC6826
:1021800011688B4288BF1360154A11688B4288BF63
:102190001360626822F003029542C5EB020301D886
:1021A0000F2B04DC304600F065F90024A6E645F06C
:1021B000010243F00103254462603046BD606B605C
:1021C00000F058F90834204603B0BDE8F08F00BF96
:1021D000D404072084120720E0080720801207207B
:1021E0007C12072088120720BCF1140F61D9BCF1C2
:1021F000540F00F28F804FEA153C0CF16E0C4FEA41
:102200004C0197E64B0A042B58D9142B00F2AD80F1
:1022100003F15B02500007EB80008368DFF8B881B0
:10222000834200F08A805A6822F00302914202D26F
:102230009B689842F7D1D9687A68E160A3608C60A6
:10224000DC60B6E645F0010742F001012544676015
:1022500030465D611D61C5F80CE0C5F808E06960B5
:10226000AA50083400F006F948E65A68A1E609F1D8
:10227000010919F0030F04F108047FF4ADAE2DE05D
:1022800004F108036469A34208BF0CF1020C3FF497
:1022900067AE23E6194448681C4654F8082FDB68EB
:1022A00040F001054D603046D3609A6000F0E2F8DE
:1022B00024E60CF15B0C4FEA4C013BE68A0938320C
:1022C0005000A8E7BC423FF402AFBC68626822F04D
:1022D000030261E7D8F8008098457AD11CF0030F1B
:1022E000A8F108030CF1FF3CF4D17B6823EA00035A
:1022F0007B60400098423FF6BEAE00283FF4BBAE84
:102300000342CC467FF464AE400003420CF1040C5F
:10231000FAD05DE6BCF5AA7F19D84FEAD53C0CF19E
:10232000770C4FEA4C0105E64FF48053EEE60123AB
:10233000C8F80430444600222EE792100120904055
:10234000D8F8042019460243C8F8042075E740F283
:1023500054539C451BD84FEA954C0CF17C0C4FEA2A
:102360004C01E7E50AF1100AA3E6542B1FD80A0B2B
:102370006E3250004FE7CBF30B0100297FF4B1AE72
:102380000AEB0901BA6841F001015160F6E6FC214F
:102390004FF07E0CCEE501224FF0000ACBE604F1AF
:1023A0000801304600F028F9DAF80030E6E6B3F527
:1023B000AA7F03D8CA0B773250002CE740F2545260
:1023C000934203D88A0C7C32500024E7FC207E2202
:1023D00021E77B688DE700BFD4040720F0B48407B1
:1023E00043D0541E002A3ED0CDB2034603E0621E05
:1023F000002C38D0144603F8015B9A07F7D1032C60
:102400002AD9CDB245EA05250F2C45EA054515D94F
:10241000A4F110073F0903F1100606EB07161A4650
:10242000156055609560D5601032B242F8D104F065
:102430000F040137032C03EB07130DD91E46224668
:10244000043A032A46F8045BFAD8221F22F003025A
:102450000432134404F003042CB1C9B21C4403F841
:10246000011BA342FBD1F0BC704714460346C6E7EC
:10247000704700BF704700BF38B5074C00230546C2
:1024800008462360FEF706FC431C00D038BD2368D5
:10249000002BFBD02B6038BDB012072020F00301C9
:1024A00010F00300C0F1000051F8043B00F1040CEF
:1024B0004FEACC0C6FF000021CBF22FA0CF213435F
:1024C0004FF0010C4CEA0C2C4CEA0C4CA3EB0C0228
:1024D00022EA030212EACC1204BF51F8043B043092
:1024E000F4D013F0FF0F1FBF013013F47F4F013002
:1024F00013F47F0F18BF0130704700BF024B0A462C
:102500000146186800F044B9D0040720024B13B10B
:10251000024800F005B87047000000002D250800B3
:10252000014600200246034600F046B938B5094D81
:10253000094C641BA41018BF05EB840505D0013CB1
:1025400055F8043D9847002CF9D1BDE8384000F01B
:10255000A7BF00BFAC340800B0340800F8B5234D65
:102560000F460446FFF784FFAB685E6826F003065B
:10257000F11B01F6EF7121F47F6121F00F01A1F54C
:102580008057B7F5805F07DB20460021FFF774FF17
:10259000AB683344984204D02046FFF76BFF00201D
:1025A000F8BD20467942FFF767FF01300DD0104B90
:1025B000AA681968F61B46F001062046C91B56603A
:1025C0001960FFF757FF0120F8BD20460021FFF7F3
:1025D00053FFAB68C21A0F2ADEDD064D04492D6891
:1025E00042F00102401B5A600860D5E7D40407207E
:1025F00088120720E00807202DE9F0410D46064625
:10260000002955D0FFF734FF55F8041CDFF870C1DE
:10261000A5F1080421F00103E218DCF8080057686E
:10262000904227F0030768D011F00101576032D0C3
:102630000021D0194068C00706D43B4490680029A7
:102640004DD0D268C260906043F001026260E350F6
:10265000E1B9B3F5007F2DD35A0A042A69D8980945
:10266000383041000CEB810CDCF80820444962450D
:1026700065D0516821F003018B4202D292689445E3
:10268000F7D1D368E360A2609C60D4603046BDE8B7
:10269000F041FFF7EFBE55F8085C0CF10808641B29
:1026A000A0682B44404542D0E568C560A860C0E7FB
:1026B000BDE8F081DB089A1001209040DCF804109E
:1026C0000CEBC3039A680143A260E360CCF80410EA
:1026D00030469C60D460BDE8F041FFF7CBBE294D89
:1026E000A842AED143F00102CCF81440CCF810401F
:1026F000E060A0606260E350C8E71F44CB0707D4E6
:1027000055F8081C641AE368A2680F44D3609A6005
:102710001D4B47F001021B6862609F42CCF80840E5
:10272000B4D31A4B30461968FFF718FFAEE7012102
:102730007FE7142A0BD802F15B00410092E780107A
:102740000125854048681346284348609AE7542A83
:1027500003D8180B6E30410084E7B2F5AA7F03D886
:10276000D80B773041007DE740F254518A4203D8BC
:10277000980C7C30410075E7FC217E2072E700BF99
:10278000D4040720DC040720DC080720841207207B
:1027900038B5084C00230546084611462360FEF76D
:1027A000ACFA431C00D038BD2368002BFBD02B6053
:1027B00038BD00BFB0120720F0B5274C85B02668A1
:1027C0000746D6F84841002C40D065681F2D1EDD15
:1027D000224818B94FF0FF3005B0F0BD4FF4C87073
:1027E000039102920193FFF755FB03990446029A65
:1027F000019B0028EED0D6F848510020256060608B
:102800000546C6F84841C4F88801C4F88C013FB9B0
:102810006B1C00200235636044F8251005B0F0BD44
:102820000126AE4004EB8500C0F88820D4F888214A
:10283000022F42EA0602C4F88821C0F80831E7D125
:10284000D4F88C311E43C4F88C61E1E706F5A67418
:10285000C6F84841B9E700BF78340800951E080063
:10286000494E54455252555054000000000E0E403F
:10287000000100000B00000001000000000000004B
:1028800004000000FFFFFFFF000E0E4000020000EA
:102890000B00000001000000000000000400000028
:1028A000FFFFFFFF00100E40000000020C000000C0
:1028B000020000000000000014000000FFFFFF0005
:1028C00000120E40000000100D0000000200000089
:1028D0000000000014000000FFFFFF0E00120E4079
:1028E000000000040D0000000200000000000000D5
:1028F00014000000FFFFFF0D00120E400000000258
:102900000D000000020000000000000014000000A4
:10291000FFFFFF0C00120E40000000010D00000040
:1029200002000000000000000C000000FFFF07FF95
:1029300000120E40000080000D00000002000000A8
:10294000000000000C000000FFFF06FF00120E4018
:10295000000040000D000000020000000000000028
:102960000C000000FFFF05FF00120E4000002000D9
:102970000D00000002000000000000000C0000003C
:10298000FFFF04FF00120E40000000200D000000B9
:10299000020000000000000014000000FFFFFF0F15
:1029A00000140E40800000000E0000000200000035
:1029B0000000000014000000FFFFFF1000140E4094
:1029C000000100000E0000000200000000000000F6
:1029D00014000000FFFFFF1100100E40000000086F
:1029E0000C000000020000000000000014000000C5
:1029F000FFFFFF0100140E40100000000E00000059
:102A0000020000000000000004000000FFFFFFFFC4
:102A100000140E40200000000E0000000200000024
:102A20000000000004000000FFFFFFFF000E0E404A
:102A3000002000000B00000001000000000000006A
:102A400004000000FFFFFFFF000E0E40001000001A
:102A50000B00000001000000000000000400000066
:102A6000FFFFFFFF000E0E40000800000B000000FB
:102A7000010000000000000004000000FFFFFFFF55
:102A8000000E0E40000400000B00000001000000DA
:102A90000000000004000000FFFFFFFF00100E40D8
:102AA000001000000C000000010000000000000009
:102AB00004000000FFFFFFFF00100E400020000098
:102AC0000C000000010000000000000004000000F5
:102AD000FFFFFFFF00100E40000000040C0000008C
:102AE000040000000000000004000000FFFFFFFFE2
:102AF000000E0E40004000000B000000040000002B
:102B00000000000004000000FFFFFFFF000E0E4069
:102B1000008000000B000000040000000000000026
:102B200004000000FFFFFFFF00140E400100000042
:102B30000E0000000400000000000000040000007F
:102B4000FFFFFFFF00140E40020000000E00000017
:102B5000040000000000000004000000FFFFFFFF71
:102B600000140E40040000000E00000004000000ED
:102B70000000000004000000FFFFFFFF00140E40F3
:102B8000080000000E00000004000000000000002B
:102B900004000000FFFFFFFF00140E404000000093
:102BA0000E0000000400000000000000040000000F
:102BB000FFFFFFFF00140E40000200000E000000A7
:102BC000040000000000000004000000FFFFFFFF01
:102BD000000E0E40800000000B000000040000000A
:102BE0000000000004000000FFFFFFFF00140E4083
:102BF000000400000E0000000400000000000000BF
:102C000004000000FFFFFFFF00120E400200000062
:102C10000D0000000400000000000000040000009F
:102C2000FFFFFFFF00120E40040000000D00000037
:102C3000040000000000000004000000FFFFFFFF90
:102C400000120E40080000000D000000040000000B
:102C50000000000004000000FFFFFFFF00120E4014
:102C6000100000000D000000040000000000000043
:102C700004000000FFFFFFFF00120E4020000000D4
:102C80000D0000000400000000000000040000002F
:102C9000FFFFFFFF00120E40400000000D0000008B
:102CA000040000000000000004000000FFFFFFFF20
:102CB00000120E40800000000D0000000400000023
:102CC0000000000004000000FFFFFFFF00120E40A4
:102CD000000100000D0000000400000000000000E2
:102CE00004000000FFFFFFFF00120E400002000082
:102CF0000D000000040000000000000004000000BF
:102D0000FFFFFFFF000E0E40000008000B00000058
:102D1000040000000000000004000000FFFFFFFFAF
:102D2000000E0E40000010000B0000000400000028
:102D30000000000004000000FFFFFFFF00120E4033
:102D4000000008000D00000004000000000000006A
:102D500004000000FFFFFFFF00120E40000004000F
:102D60000D0000000400000000000000040000004E
:102D7000FFFFFFFF00120E40000002000D000000E8
:102D8000040000000000000004000000FFFFFFFF3F
:102D900000120E40000001000D00000004000000C1
:102DA0000000000004000000FFFFFFFF00120E40C3
:102DB000008000000D000000040000000000000082
:102DC00004000000FFFFFFFF00120E400040000063
:102DD0000D000000040000000000000004000000DE
:102DE000FFFFFFFF00120E40002000000D0000005A
:102DF000040000000000000004000000FFFFFFFFCF
:102E000000120E40001000000D0000000400000041
:102E10000000000004000000FFFFFFFF00100E4054
:102E2000000020000C000000040000000000000072
:102E300004000000FFFFFFFF00100E4000400000F4
:102E40000C0000000400000000000000040000006E
:102E5000FFFFFFFF000E0E40000001000B0000000E
:102E60000300000000000000020000000007FFFF58
:102E7000000E0E40000000010B00000003000000E7
:102E800000000000020000000106FFFF000E0E40DF
:102E9000000080000B0000000300000000000000A4
:102EA000020000000205FFFF000E0E40000040007F
:102EB0000B00000003000000000000000200000002
:102EC0000304FFFF000E0E40400000000B00000056
:102ED0000300000000000000020000000403FF05E2
:102EE000000E0E40100000000B0000000300000068
:102EF00000000000020000000502FFFF000E0E406F
:102F0000080000000B0000000300000000000000AB
:102F1000020000000601FF03000E0E400400000046
:102F20000B00000003000000000000000200000091
:102F30000700FF0200100E40000002000C0000001D
:102F4000030000000000000002000000080AFFFF6C
:102F500000100E40000004000C0000000300000000
:102F60000000000002000000090BFFFF00100E40EF
:102F7000000008000C00000003000000000000003A
:102F8000020000000A0CFFFF00100E4000001000BD
:102F90000C00000003000000000000000200000020
:102FA0000B0DFFFF00100E40008000000C00000021
:102FB0000300000000000000020000000C10FFFFF2
:102FC00000100E40000001000C0000000300000093
:102FD00000000000020000000D11FFFF000E0E4077
:102FE000020000000B0000000100000000000000D3
:102FF000040000000EFFFFFF000E0E400100000065
:103000000B000000010000000000000004000000B0
:103010000FFFFFFF000E0E40000002000B0000003B
:10302000010000000000000004000000FFFFFFFF9F
:10303000000E0E40000004000B0000000100000024
:103040000000000004000000FFFFFFFF00120E4020
:10305000000000400D00000004000000000000001F
:1030600004000000FFFFFFFF000E0E4000002000E4
:103070000B0000000400000000000000040000003D
:10308000FFFFFFFF000E0E40000000020B000000DB
:10309000010000000000000004000000FFFFFFFF2F
:1030A000000E0E40000000040B00000001000000B4
:1030B0000000000004000000FFFFFFFF000E0E40B4
:1030C000000000080B0000000100000000000000EC
:1030D00004000000FFFFFFFF000E0E400000001084
:1030E0000B000000010000000000000004000000D0
:1030F000FFFFFFFF00100E40000080000C000000EA
:10310000020000000000000004000000FFFFFFFFBD
:10311000000E0E40000006000B0000000100000041
:103120000000000005000000FFFFFFFF00100E4040
:10313000003000000C000000010000000000000052
:1031400005000000FFFFFFFF000E0E40000300001F
:103150000B0000000100000000000000050000005E
:10316000FFFFFFFF000E0E40000C00000B000000F0
:10317000010000000000000005000000FFFFFFFF4D
:10318000000E0E40003000000B00000001000000A7
:103190000000000005000000FFFFFFFF00140E40CC
:1031A000300000000E0000000200000000000000DF
:1031B00005000000FFFFFFFF00100E40000C0000A4
:1031C0000C000000010000000000000004000000EE
:1031D000FFFFFFFF00100E40000020000C00000069
:1031E000020000000000000004000000FFFFFFFFDD
:1031F000000E0E40000000200B0000000100000047
:103200000000000004000000FFFFFFFF00100E4060
:10321000008000000C000000010000000000000021
:1032200004000000FFFFFFFF00100E400040000000
:103230000C0000000100000000000000040000007D
:10324000FFFFFFFF000E0E40030000000B00000018
:10325000010000000000000005000000FFFFFFFF6C
:1032600000100E4000C000000C0000000100000033
:103270000000000005000000FFFFFFFF000000004D
:10328000000000000000000000000000000000003E
:1032900000000000FFFFFFFF00000000080000002A
:1032A0001000000018000000400000005000000066
:1032B00060000000700000000002000040020000FA
:1032C00080020000C0020000000300004003000074
:1032D00080030000C00300000D0A006E616E0069EB
:1032E0006E66006F766600000000000000000000BF
:1032F0000D0F0800290D08009D0E0800CB0E0800D8
:10330000AF0E0800F50E0800390E0800610F080026
:10331000350E080000000000000000000000000062
:103320000D0F0800290D08009D0E0800CB0E0800A7
:10333000AF0E0800F50E080031100800610F0800FC
:10334000350E08000000000041726475696E6F2040
:1033500044756500120100020000004041233E0058
:103360000001010203010403090400000000000041
:10337000000000AAAAAAAAAAAAAAAAEEEEEEEEEE57
:10338000EEEEEEFEFFFFFFFFFFFFFFFFFFFFFF7F01
:10339000BFDFEFF7FBFDFC7EBFDFEFF7FBFD7E41FC
:1033A000726475696E6F204C4C430012010002EF8D
:1033B00002014041233E000001010203010A060010
:1033C00002000000400100000000000000000000BA
:1033D000C91808009D19080089180800E11808009C
:1033E000A918080025190800A11808002D190800BF
:1033F000080B0002020201000904000001020200A1
:103400000005240010010524010101042402060521
:1034100024060001070581031000100904010002C1
:103420000A00000007050202400000070583024071
:103430000000080B00020202010009040000010262
:1034400002000005240010010524010101042402EA
:103450000605240600010705810310001009040178
:1034600000020A00000007050202000200070583AF
:103470000200020043000000A8000720F8B500BFCA
:10348000F8BC08BC9E4670470D25080019010800CD
:10349000E90208002106080081130800691A0800E3
:1034A000F8B500BFF8BC08BC9E467047F5000800A0
:1034B00072B6064B9A68D107FBD5054A5A609A68DE
:1034C000D207FCD5034A044B1A60FEE7000A0E40FF
:1034D0000C01005A050000A5001A0E4000140E4011
:1034E00000140E4000140E4000140E4000120E4056
:1034F0000100000000120E4000120E400200000009
:1035000004000000080000004000000000120E400F
:10351000000000010000800000093D00FFFFFFFFE8
:1035200032200000363900006630000066310000AD
:10353000000000000000000000000000000000008B
:103540000000000000000000FFFFFFFF00E100009E
:1035500000000800010000000000000094030720A4
:10356000FC030720640407200000000000000000A6
:10357000000000000000000000000000000000004B
:10358000000000000000000000000000743408008B
:10359000000000000000000000000000000000002B
:1035A000000000000000000000000000000000001B
:1035B000000000000000000000000000000000000B
:1035C00000000000000000000000000000000000FB
:1035D00000000000000000000000000000000000EB
:1035E00000000000000000000000000000000000DB
:1035F00000000000000000000000000000000000CB
:1036000001000000000000000E33CDAB34126DE667
:10361000ECDE05000B0000000000000000000000D0
:10362000000000000000000000000000000000009A
:10363000000000000000000000000000000000008A
:10364000000000000000000000000000000000007A
:10365000000000000000000000000000000000006A
:10398000A80007200000000000000000D404072069
:10399000D4040720DC040720DC040720E40407200B
:1039A000E4040720EC040720EC040720F4040720BB
:1039B000F4040720FC040720FC040720040507206A
:1039C000040507200C0507200C0507201405072017
:1039D000140507201C0507201C05072024050720C7
:1039E000240507202C0507202C0507203405072077
:1039F000340507203C0507203C0507204405072027
:103A0000440507204C0507204C05072054050720D6
:103A1000540507205C0507205C0507206405072086
:103A2000640507206C0507206C0507207405072036
:103A3000740507207C0507207C05072084050720E6
:103A4000840507208C0507208C0507209405072096
:103A5000940507209C0507209C050720A405072046
:103A6000A4050720AC050720AC050720B4050720F6
:103A7000B4050720BC050720BC050720C4050720A6
:103A8000C4050720CC050720CC050720D405072056
:103A9000D4050720DC050720DC050720E405072006
:103AA000E4050720EC050720EC050720F4050720B6
:103AB000F4050720FC050720FC0507200406072065
:103AC000040607200C0607200C0607201406072012
:103AD000140607201C0607201C06072024060720C2
:103AE000240607202C0607202C0607203406072072
:103AF000340607203C0607203C0607204406072022
:103B0000440607204C0607204C06072054060720D1
:103B1000540607205C0607205C0607206406072081
:103B2000640607206C0607206C0607207406072031
:103B3000740607207C0607207C06072084060720E1
:103B4000840607208C0607208C0607209406072091
:103B5000940607209C0607209C060720A406072041
:103B6000A4060720AC060720AC060720B4060720F1
:103B7000B4060720BC060720BC060720C4060720A1
:103B8000C4060720CC060720CC060720D406072051
:103B9000D4060720DC060720DC060720E406072001
:103BA000E4060720EC060720EC060720F4060720B1
:103BB000F4060720FC060720FC0607200407072060
:103BC000040707200C0707200C070720140707200D
:103BD000140707201C0707201C07072024070720BD
:103BE000240707202C0707202C070720340707206D
:103BF000340707203C0707203C070720440707201D
:103C0000440707204C0707204C07072054070720CC
:103C1000540707205C0707205C070720640707207C
:103C2000640707206C0707206C070720740707202C
:103C3000740707207C0707207C07072084070720DC
:103C4000840707208C0707208C070720940707208C
:103C5000940707209C0707209C070720A40707203C
:103C6000A4070720AC070720AC070720B4070720EC
:103C7000B4070720BC070720BC070720C40707209C
:103C8000C4070720CC070720CC070720D40707204C
:103C9000D4070720DC070720DC070720E4070720FC
:103CA000E4070720EC070720EC070720F4070720AC
:103CB000F4070720FC070720FC070720040807205B
:103CC000040807200C0807200C0807201408072008
:103CD000140807201C0807201C08072024080720B8
:103CE000240807202C0807202C0807203408072068
:103CF000340807203C0807203C0807204408072018
:103D0000440807204C0807204C08072054080720C7
:103D1000540807205C0807205C0807206408072077
:103D2000640807206C0807206C0807207408072027
:103D3000740807207C0807207C08072084080720D7
:103D4000840807208C0807208C0807209408072087
:103D5000940807209C0807209C080720A408072037
:103D6000A4080720AC080720AC080720B4080720E7
:103D7000B4080720BC080720BC080720C408072097
:103D8000C4080720CC080720CC0807200000020048
:043D9000FFFFFFFF33
:040000038000043540
:00000001FF
