:0200000280007C
:1000000000800820F1090800891208008912080000
:1000100089120800891208008912080000000000F7
:100020000000000000000000000000008B1208002B
:1000300089120800000000008F12080093120800C7
:100040008912080089120800891208008912080024
:100050008912080089120800891208008912080014
:100060007D0A08008912080000000000291008001D
:1000700089120800FD060800611008000000000059
:1000800000000000910A08009D0A0800891208007B
:10009000A90A0800891208008912080089120800BC
:1000A0008912080000000000891208008912080067
:1000B00089120800891208008912080089120800B4
:1000C00089120800891208008912080089120800A4
:1000D00089120800A907080089120800891208007F
:1000E000690A0800891208008912080089120800AC
:1000F0008912080010B5054C237833B9044B13B1AD
:100100000448AFF300800123237010BD0C090720C1
:1001100000000000FC48080008B5064B1BB106486B
:100120000649AFF300800648036813B1054B03B1DD
:10013000984708BD00000000FC480800100907208F
:10014000FC4808000000000070479DF80400920180
:1001500040EA03239DF8000043EA80208B18586092
:1001600001238B5004238B50704710B5044608467A
:10017000252100F003FA204610BD000011B1024B0A
:1001800009225A60704700BF00000C40024B01EB8F
:1001900042021A60704700BF00000C40012000FAC4
:1001A00001F1024B1A690A431A61704700000C40C2
:1001B000034B9A69D2F1010238BF00225A6170479D
:1001C00000000C40012000FA01F1024B5A6A0A4378
:1001D0005A62704700000C40024B143153F8210062
:1001E00080B2704700000C40F8B5069C07460D46EB
:1001F0001E462046394600F061F92046294632461F
:10020000BDE8F84000F061B92DE9F3419DF824E024
:100210008046BEF1010F0E4617461D46089C05D1CB
:100220000094FFF7E1FF322000F0F0FE2046414647
:100230003A4600F04AF9204631462A4602B0BDE867
:10024000F04100F042B910B580E80E00039BC36096
:10025000029B036110BD00002DE9F04F044687B0FA
:10026000154640681E469DF840A0DDF844909DF874
:100270004C80149F9DF848B000F012F96068E9B214
:100280002A46002500F028F9A06831462A460123B5
:100290000095019502950395049500F0D9F9A068A1
:1002A000324640F2D66100F083F901233246A0685D
:1002B000174900F085F9A068314600F0BBF9606885
:1002C00051464A4600F0ECF84A466068514600F054
:1002D00003F901262068212100F050F933462069F6
:1002E0005A46009601950B49FFF72FFF606841467B
:1002F0003A4600F0CEF823686068119341463A46CA
:100300003346109507B0BDE8F04F00F0EDB800BFE0
:100310005C8F423F008008402DE9F043002485B007
:1003200005460E46C0680121914600229846FFF717
:100330002DFFE8680121224623460094019402948F
:100340000394FFF71BFF22460423A86801210094B1
:1003500000F0A8F9AF682146384600F0C7F92346F7
:1003600001460122384600F0B9F9A868214600F09C
:10037000A7F92146A868224600F088F911492023F0
:100380004B60F02381F82533315DE868FFF71AFFF1
:1003900019F8041058F82420686800F081F8315DDD
:1003A000E8680134FFF7FAFE052CEDD1E868FFF7A5
:1003B000FFFEE8680021012205B0BDE8F043FFF729
:1003C000E5BE00BF00E100E02DE9F04F87B0DDF8A9
:1003D0004080129FDDF8449005468B4692461E46AB
:1003E00000241AF804106868D9F8002000F051F8C9
:1003F0001AF80410686859F8042B013400F057F813
:10040000042CEED14FEA4B0002F036F902460B46BF
:100410001BA1D1E9000102F0BFFA02F02DFC00247B
:100420001FFA80F90022315D0123009201920292AD
:1004300003920492A86800F00BF9325DA86849465F
:1004400000F0B6F80123325DA8680F4900F0B8F853
:1004500018F8041057F82420686800F021F818F8FC
:10046000041057F82420686800F036F8315DA86859
:10047000013400F0DFF8022CD4D107B0BDE8F08FD2
:10048000000000000082F4403333333FAFF30080BC
:100490007047012000FA01F113680B4313607047A5
:1004A000012000FA01F153680B43536070470120AB
:1004B00000FA01F113690B4313617047012000FA40
:1004C00001F1136B0B4313637047012000FA01F134
:1004D000536B0B4353637047012000FA01F1136F14
:1004E0000B431367704700002DE9F041079E214D33
:1004F0000F4630460B211446984600F03FF84FF463
:1005000000632B6030460C2100F038F84FF4805324
:100510002B6030460D2100F031F84FF400532B6072
:100520000E21304600F02AF80121B9404FF48043F3
:100530002B60236C0B432364B8F1000F17D0D4F861
:10054000C0300B43C4F8C0309DF818302BB1D4F83C
:10055000D4300B43C4F8D43004E0D4F8D0300B438B
:10056000C4F8D030D4F8B0301943C4F8B010BDE8A6
:10057000F08100BF00E100E0704700001E294FF04D
:10058000010202D8044B186802E0044B20391868B5
:100590008A4002431A60704710060E4000070E4062
:1005A00010B5044608462421FFF7E8FF204610BD99
:1005B000072A02D8014B5201995070470C4209405A
:1005C000072A70B5154628D8540104F1402404F5D3
:1005D0001024D4F80C624FF07E50B6B27BB102F01A
:1005E0006FFB0446304602F021FC0146204602F033
:1005F00071FC02F035FE094B6D01585170BD02F0DF
:100600005FFB0546304602F011FC0146284602F029
:1006100061FC02F025FEC4F8080270BD04420940E6
:10062000034BDA68D2F1010238BF00229A607047AA
:100630000040094010B5012404FA01F1BDE8104062
:10064000024B5A680A435A60FFF7EABF004009406C
:1006500030B59DF818009DF81C40400400EB844024
:100660009DF814409DF8105000EB04409DF80C409C
:100670001031640204EB852404EB03231A43024B7C
:1006800010434901585030BD00400940012000FA94
:1006900002F2890001F1402101F51021CB6F1343D3
:1006A000CB677047120102EB03239DF80020194429
:1006B000120102F1402202F51022C2F838117047EF
:1006C00001F110020123083103FA02F28B401344B6
:1006D000014A5363704700BF004009401333024A88
:1006E0001B01D150704700BF00400940024B490137
:1006F000585880B2704700BF0C420940F8B51C4BF7
:100700001C4AD96C1C4C1160DA6B1C4B1A601C4BD8
:1007100018691C4B186002F085FB1B4B196802F02E
:10072000D9FB1A4902F0CCFA194902F087FC194B9F
:1007300021681860184B05461E68304602F0CAFB57
:10074000314607464FF07E5002F0BAFA294602F0D1
:10075000C1FB0146384602F0B5FA1049206002F0AC
:1007600061FD0F4B10B101221A70F8BD1870F8BD71
:1007700000120E40380907203409072040090720DD
:1007800000800840300907202C000720000020418D
:10079000000068425C090720680007200000A041B3
:1007A000700907200000000010B50024144BE1B2CE
:1007B0001868FFF711FD134B188002F037FB124940
:1007C00002F088FB114902F039FC114B186001F06E
:1007D00065FF09A3D3E9002302F030FA0D4B08B1FD
:1007E000002201E04FF07E5243F824200134052C12
:1007F000DCD110BDAFF30080666666666666FE3FBC
:10080000680907202C0907203333534000F07F4547
:100810003C0907204409072013B5104B104C114A1E
:1008200021781A6010480A2200F0ABFD21780F4AA7
:100830000F4B104C107841B1517822680092002281
:1008400001920CCBFFF7E0FC05E0517822680092A2
:100850000CCBFFF7C9FC02B010BD00BF501A0E4010
:1008600070090720010000A5880A072081000720E1
:1008700034000720580907202DE9F0434FF4E131F7
:1008800087B03F4800F0A4FE3E4A3F4B01205A602B
:1008900000F00AFD3D4D0446FFF76EFE01202C607E
:1008A00000F002FD3A4F0446FFF7F2FD01203C60E4
:1008B00000F0FAFC374C29680646FFF771FE01206C
:1008C000266000F0F1FCDFF8208129680646FFF77A
:1008D0004CFC0120C8F8006000F0E6FCDFF80C9149
:1008E0000646FFF731FC1420C9F8006000F0DCFC7C
:1008F000D9F8003006460093D8F8003001932968F3
:100900003A682368FFF79FFC234B244D1978244B4A
:100910002E600093234B30460193234B234A0293CE
:10092000234BFFF751FD28682249234A234BFFF749
:10093000F3FC234B234A19781278234B1B7800923F
:10094000224A12680192224A12780292214A1278AF
:100950000392214A12680492204A28681268FFF71D
:100960007BFC0022206813461D49FFF729FE206802
:100970001C490122002307B0BDE8F043FFF720BE69
:10098000880A07200065FF0F501A0E4064090720EF
:100990005809072028090720300007206C09072084
:1009A0006C00072034000720880007208100072002
:1009B0007F000720740007207A00072054000720DA
:1009C000500007207900072048000720700007200A
:1009D0002E090720850007204C000720440007202F
:1009E0006666263F6666663F68090720600907203D
:1009F000154B164A10B593421C4601D0002301E066
:100A0000134B07E01349D0188842F9D2E158D1506E
:100A10000433F7E7104A934203D2002243F8042B31
:100A2000F8E70E490E4B21F0604201F1604122F0DF
:100A30007F02B1F5801F9A6003D29A6842F000529B
:100A40009A60084B9847FEE7FC4808000000072022
:100A50000C0907200C09072080120720000008005D
:100A600000ED00E03516080008B5024B1B6803B125
:100A7000984708BD7409072070470000014800F03E
:100A8000ABBD00BF880A0720704770477047000061
:100A9000014800F0A1BD00BF340B0720014800F061
:100AA0009BBD00BF5C0B0720014800F095BD00BF57
:100AB000840B07202DE9F0413F4D00F063FA2B68CD
:100AC0004FF47A72B3FBF2F35A1E3C4BF0215A609A
:100AD0003B4A002482F8231007229C601A6002F02F
:100AE000DFFBA84620460021013400F059FB4F2CC3
:100AF000F8D1344C344E354F354B4FF0FF35C4F8F8
:100B0000A0504FF44072C6F8A0502046C3F8A05041
:100B100001210023C7F8A05000F085F90020012131
:100B200000F03EFB204601214FF44062002300F01C
:100B30007AF9204601214FF44052002300F073F966
:100B4000384602213022002300F06DF930460121A1
:100B50004FF44062002300F066F920460121032291
:100B6000002300F060F901214FF440420023304699
:100B700000F059F9252000F0C7F8D8F80010154A00
:100B80000C23154800F084F90123134800214FF489
:100B9000401200F0DEF900210A460F4800F0C4F9C7
:100BA00029460D4800F0EBF90B4800F0E4F9BDE8E8
:100BB000F04100F068BB00BF9000072010E000E0AB
:100BC00000ED00E0000E0E4000100E4000140E403C
:100BD00000120E40002D310100000C402DE9F743BA
:100BE000234D244C284600F00DFC204600F00AFC62
:100BF000DFF8B490082213461F49009501941F4F57
:100C00001F4800F09BFC1F4D484600F0FBFBDFF83F
:100C10009C80384600F0F6FB1B4E284600F0F2FBA5
:100C20001A4C404600F0EEFB304600F0EBFB20464D
:100C300000F0E8FB11221346CDF80090CDF80480B7
:100C40001349144800F0CCFB12221346009701967A
:100C50001149124800F0C4FB142200950194104978
:100C60001346104800F0BCFB03B0BDE8F08300BFA2
:100C7000AC0A0720000A072000080E40940D072048
:100C8000880A07201C0E0720AC0B0720340C072015
:100C900000800940340B072000C009405C0B07208E
:100CA00000400A40840B07200C0D0720780907201C
:100CB00008B50C4800F0C2FB08B1FFF7DDFE0A489A
:100CC00000F0BCFB08B1FFF7DFFE084800F0B6FB00
:100CD00008B1FFF7DAFE064800F0B0FB08B1FFF7F5
:100CE000D5FE08BD880A0720340B07205C0B0720BF
:100CF000840B0720034B4FF44412DA619A6E5206BC
:100D0000FCD5704700060E402C2819D81F280E4B22
:100D10004FF0010208D802FA00F0996900EA0102D6
:100D200082420FD018610DE0203802FA00F0D3F8AB
:100D3000081100EA0102824204D0C3F8000101E078
:100D4000012070470020704700060E402C2817D85D
:100D50001F280D4B4FF0010107D801FA00F09A69E6
:100D6000024082420ED15A610CE0203801FA00F0B4
:100D7000D3F808210240824204D1C3F8042101E0E3
:100D8000012070470020704700060E40000200F46A
:100D90007062024B42F001029A63704700060E40F7
:100DA000014B20221A60704700060E400AB14166CE
:100DB000704701667047426405290DD8DFE801F0ED
:100DC0000D03090D0D0D036F016F0B4023EA0203A4
:100DD00001E0036F1343036742607047D307416428
:100DE0004CBF4166016612F00A0F14BF01624162F6
:100DF000930701D4130701D5C0F880104161016049
:100E0000704710B5029C41640CB1416600E0016678
:100E10000BB1016500E041650AB1016300E0416387
:100E20000161016010BDF7B51E464B1E05460F4619
:100E30001446042B1FD8DFE803F003030C12120042
:100E40002246FFF7B8FFF2076C644CBF6C662C6655
:100E500003E021463246FFF7C1FF01200CE006F017
:100E6000010300937B1F5A425A412146C6F3800377
:100E7000FFF7C7FFF1E7002003B0F0BD034680682D
:100E8000084004D09B6919420CBF00200120704724
:100E90002DE9F041224D90B06C4606460F46904633
:100EA0009C460FCD0FC40FCD0FC40FCD0FC495E8D6
:100EB0000F0084E80F000123336000214FEA48024D
:100EC00040F202237160C6F82031C6F80411C6F85A
:100ED0001411B7FBF2F102FB117202B901394B1C7C
:100EE0005B00B7FBF3F70F4B0022B7FBF3F70CFBEC
:100EF00007FC5DF82200604505D20132102AF8D1C6
:100F00004FF0FF3009E07368090289B212041943F7
:100F100002F470220A437260002010B0BDE8F08134
:100F2000E846080040420F004368D20723F08F03D1
:100F3000436004D5436843F0800343607047CB07A8
:100F400006D5436801F00E0143F0010319434160E7
:100F5000704710B54468090622431B0701F070640E
:100F6000224303F040531A43426010BD012303FAA9
:100F700001F1416170474FF6FF7343617047816231
:100F8000704700001A4A4FF480631360C2F80032C1
:100F9000184B1A6AD20102D5174A1A6205E0174A9D
:100FA0001A629A6ED007FCD5F6E7996E114AC9030A
:100FB000FBD5116B21F0030141F0010111639A6E21
:100FC0001207FCD50E490B4A91629A6E9007FCD528
:100FD000084A112111639A6E1107FCD5054A1221A6
:100FE00011639A6E1207FCD5064A074B1A607047C8
:100FF000000A0E4000060E400908370109083700B4
:10100000013F0D2000BD01059000072038B50446C2
:1010100048B101F0D7F9054600F0FAF801F0D2F92D
:10102000401BA042F8D338BD38B50B4BDC6CB4FA8A
:1010300084F3DBB21F2B0DD8C3F11F03DDB2074BC6
:1010400053F8253003B19847012303FA05F524EA44
:101050000504ECE738BD00BF000E0E40A40E0720CB
:1010600038B50B4BDC6CB4FA84F3DBB21F2B0DD814
:10107000C3F11F03DDB2074B53F8253003B1984786
:10108000012303FA05F524EA0504ECE738BD00BFA7
:1010900000140E40240F07202DE9F0413D4E1C2383
:1010A00003FB00631A7B04460F46002A70D03A4DBA
:1010B0002A5C02F00F02042A03D13848597EFFF758
:1010C00055FF2A5D02F00F03022B11DC82B1022BC7
:1010D00002D16FB9BDE8F081012B03D1022F07D1F6
:1010E000BDE8F081032B03D1012F03D1BDE8F081CE
:1010F000012F32D01FB1022F17D0BDE8F0814FF081
:101100001C0808FB04F806EB0807B868FFF7FCFDAD
:10111000002356F8080003217A68FFF784FE2B5D50
:1011200023F00F0343F0020314E04FF01C0808FB08
:1011300004F806EB0807B868FFF7E6FD012356F848
:10114000080003217A68FFF76EFE2B5D23F00F0382
:1011500043F001032B55BDE8F0811C236343F7588E
:1011600012091E440CBF04210521336938467268F8
:10117000FFF759FE2B5D23F00F0343F003032B55BC
:10118000BB69013304D1B068BDE8F041FFF7DEBDB3
:10119000BDE8F081BC3C0800BC0C072000000C40FE
:1011A000F7B5194E1C2303FB00631B7B04460D4659
:1011B00043B3164F3B5C03F00F03052B02D1012113
:1011C000FFF76AFF3B5D03F00F0343EA05133B554E
:1011D0001C235C43331936595C6830462146FFF7BF
:1011E0004DFE38B9304621462A4603B0BDE8F040EE
:1011F000FFF7DCBD01230093304621462A46002339
:10120000FFF7FFFD03B0F0BDBC3C0800BC0C07209D
:10121000704700207047FEE7044B1A680AB9044A79
:101220001A601A681044186010467047A40F07200F
:10123000801207204FF0FF3070474FF0FF307047AB
:101240004FF400534B60002070470120704700208E
:10125000704700207047000010B50023934207DA62
:1012600005484469A407FBD5CC5C0133C461F5E7AC
:1012700022EAE27010BD00BF00080E40FEE7704792
:101280004FF0FF3070477047FEE7FFF7C4BFFFF72E
:10129000C2BF08B5FFF7BDFF28B900F08BF8BDE865
:1012A000084001F087B808BD02F022B8F8B505463D
:1012B0000E4617460024BC4207D02B6828461B6800
:1012C000315D984708B10134F5E72046F8BD38B5DF
:1012D00005460C46084641B102F00EFB2B6802465B
:1012E0005B6828462146984738BD38BD08B5036875
:1012F0001B68984708BD000008B50249FFF7E7FFE3
:1013000008BD00BF2847080070B50B468AB0002111
:101310008DF82410012A98BF0A220DF12305B3FB92
:10132000F2F402FB1433DEB2092E94BF30363736A6
:10133000F6B22946234605F80169002CEFD1FFF7E4
:10134000C6FF0AB070BDF8B506460D46144622B970
:101350000368C9B21B689847F8BD0A2A0CD1002956
:101360000BDA2D21FFF7C2FF6942074622463046BD
:10137000FFF7CAFF3844F8BDD2B2BDE8F840FFF726
:10138000C3BF38B50446FFF7DEFF05462046FFF72A
:10139000B3FF284438BD0000014B1860704700BF00
:1013A00094000720024B4FF0FF321A60704700BFD5
:1013B00094000720054A08B51368591C04D0013B66
:1013C00013600BB9024B984708BD00BF940007207B
:1013D00001000720012070474FF40C6200F0C0B8F4
:1013E00073B5069D04460095079D0E46019500F0D5
:1013F000A5F8034B20462360666202B070BD00BFB3
:101400004047080010B500218022044602F014FA7B
:101410000023C4F880302046C4F8843010BDD0F8D2
:101420008030D0F88420013303F07F03934204D04E
:10143000D0F880208154C0F8803070470369D3F819
:101440008000D3F88430C01A00F07F007047036931
:10145000D3F88010D3F8842091421DBFD3F88420A4
:10146000985CC0B24FF0FF3070470369D3F880102A
:10147000D3F8842091420AD0D3F88420985CD3F822
:101480008420013202F07F02C3F8842070474FF0BD
:10149000FF3070474369D3F88010D3F8842091421D
:1014A000F9D1826953699B05FCD57047836970B592
:1014B0005E694269B607D2F88450D2F8804001D5FF
:1014C000A54218D0D2F880400C4B01342340002BA9
:1014D00003DA013B63F07F030133D2F884409C427E
:1014E000FBD0D2F8804011554269C2F88030836940
:1014F00002229A6000E0D961012070BD7F00008067
:10150000036910B5D3F884200446C3F8802003682B
:101510005B699847237F012259B203F01F0302FA47
:1015200003F34909044A203142F82130206ABDE81A
:101530001040FFF70BBC00BF00E100E030B5002514
:1015400045604FF47A758560044D81610560039DA7
:1015500002770561049D0362456130BD7047080054
:1015600070B50446006A0D461646FFF7CDFBA36929
:1015700040F20222C3F82021AC221A60124A5E60B7
:1015800012680121B2FBF5F52D094FF0FF321D6203
:10159000DA6061229A60227F50B202F01F0201FAE3
:1015A00002F20A49400941F8202021690022C1F8CD
:1015B0008420C1F880206169C1F88420C1F88020AE
:1015C00050221A6070BD00BF9000072000E100E0CB
:1015D0004FF40062FFF7C4BF38B5836904465D6904
:1015E000EA0704D599690069C9B2FFF718FFAB078C
:1015F00016D56369D3F88410D3F880209142A2698C
:101600000CD0D3F88410595CC9B2D161D3F88420CE
:10161000013202F07F02C3F8842001E00223D3608C
:1016200015F0600F04D0A3691A6842F480721A6042
:1016300038BD704708B500F0CBFEFFF73BFAFFF767
:10164000F8FF0120FFF7E2FC064800F059F9FFF728
:1016500013F9FFF7E1F8044B002BFAD0FFF728FB52
:10166000F7E700BFB80F0720B10C0800064BD3F80E
:101670003021D20703D45B68D90703D4F6E70122EF
:10168000C3F86021704700BF00C00A4038B5094B5D
:101690001D6872B6BFF35F8F1C4600F00F00002379
:1016A000236000F045FE25B101232360BFF35F8F67
:1016B00062B638BDCC0007202DE9F8431B4B8946A4
:1016C0001B6815463BB31A4BD3F8008072B6BFF3C4
:1016D0005F8F00F00F04002620461F461E6000F0BA
:1016E00027FEA84238BF0546AE4206D0204600F08D
:1016F000E7FD09F806000136F6E71DB1204600F0C7
:1017000017FE78B1B8F1000F09D001233B60BFF399
:101710005F8F62B603E04FF0FF30BDE8F8832846E4
:10172000BDE8F883204600F00DFEEBE7C40F07206C
:10173000CC00072007B501220DF1070100F00F00D2
:10174000FFF7BAFF01280CBF9DF807004FF0FF30EC
:1017500003B05DF804FB0000114B2DE9F0411B685C
:1017600080460D461746B3B114468CB1B8F1000F50
:1017700014BF4FF400764026A64228BF26462946CD
:1017800008F00F003246A41B00F046FD3544ECE79C
:101790003846BDE8F0814FF0FF30BDE8F08100BF72
:1017A000C40F07202DE9F0410C4B0D4F15461B8847
:1017B0003A8888469A420BD22C46002644B108EB60
:1017C00006012246002000F027FD0644241AF5E712
:1017D0003B8828462B443B80BDE8F081C00F0720A2
:1017E000A80F0720F8B5012900AF06460C4628DDF2
:1017F000CB1D23F00703ADEB030D02F07DF80130A4
:10180000400003238DF800006D468DF80130701EF6
:101810000222A2420DDA10F8013F53B1511CC9B2A5
:10182000A142AB5404D0002302326B54D2B2F0E791
:10183000224600202946FFF7B5FF003018BF0120DF
:1018400000E00020BD46F8BD38B50C46054600F066
:10185000B3FC00202946224600F046FD00F0C0FC03
:10186000204638BD037910B504461BB9BDE81040C9
:1018700000F08EBB00F0C4FA2146BDE8104000F035
:10188000AFBA13B5002302AC04F8013D204600F0C6
:101890006BFB00F0B5FA214600F072FA9DF80700E4
:1018A00002B010BD13B5002302AC04F8013D204680
:1018B00000F064FB00F0A4FA214600F061FA9DF804
:1018C000070002B010BD10B5044600F031FD20B194
:1018D0002046BDE8104000F049BD10BD10B50446DB
:1018E000054800F09FFB00F0A3FB10B9034B012259
:1018F0001A60204610BD00BF2D190800B40F072044
:1019000008B5054B186828B100F0F2FB034B002224
:101910001A60012008BD00BFB40F0720C40F0720C4
:101920000148FFF7DBBF00BFB80F07202DE9F047E4
:10193000AC4C88B063681F0717D52368002023F0DC
:101940007F032360236842F2320143F08003236067
:1019500000F0F6FBA44B04221A604FF48053A361FD
:10196000A24B00221A600823A3609E4B5B685E04B2
:1019700008D59F4B02201860FFF788FE10B19D48E4
:1019800000F0A4FA974B5A68550744BF04229A60A6
:101990005B68DC0440F1E28100F02EFC002800F0DE
:1019A000DD81002001A9082200F09EFC00F02CFC43
:1019B0009DF80450280602D500F0F6FB01E000F087
:1019C00003FC15F0600440F0B4819DF8053073B954
:1019D0009DF80440ACB1884B1B780020012B14BF4C
:1019E0000146012100F05AFC0020014697E1012B3D
:1019F0000DD19DF80630012B01D1804BECE77E4BD9
:101A00001C702046214600F049FC2046EDE7032BE0
:101A100075D19DF80630012B05D1784A2046214624
:101A2000137000F03BFC9DF8060028B9724B0122B0
:101A300001461A7000F032FC9DF80630022B40F08F
:101A400085819DF80430002B40F08081BDF808307E
:101A5000190740F07B81634C1B0A6269013B22F04D
:101A600001026261226842F400622260032B00F2EC
:101A70006D81DFE803F031383F02FFF7F7FD002307
:101A8000C4F81833C4F8283341F23013C4F80831CD
:101A9000D4F8083143F00203C4F80831514BD3F8AD
:101AA00038215203FAD5DA6942F00402DA61544B64
:101AB000544A9A5C03F8012F534A9342F8D1494B98
:101AC0001A6842F400421A600122C3F868214FF4F8
:101AD0008042C3F82822FEE7FFF7C8FD236843F4DD
:101AE00000532360FEE7FFF7C1FD236843F4804302
:101AF0002360FEE7FFF7BAFD444B6361FEE7052B69
:101B000006D100F051FB9DF8060000F043FC1DE1FA
:101B1000062B40F0DC809DF807603D4D022EBDF89D
:101B20000A903C4F2C8028D13C80FFF7AAFE4FF052
:101B3000090882462146424603A801F07DFE0123A2
:101B40008DF81130C0238DF81330FA238DF814303E
:101B50002B8803A9434442462046ADF80E308DF849
:101B60000C808DF80D608DF810A02C80A7F80090E7
:101B7000FFF718FEFFF785FEE8E0A7F8009000F0F9
:101B80003FF901A900F010F9002803D0D4BF0020CC
:101B90000120DAE0012E10D1BDF80A201E4B082AE0
:101BA00004BF0121196018681C491D4B002808BF9B
:101BB0001946112A00F2868048E0032E48D19DF88C
:101BC000063033B91749BDF80A200B7893423DD847
:101BD00078E0022B01D1144833E0012B28D11348BF
:101BE0002FE000BF00C00A40F0C10A40C40F072028
:101BF00068C10A40E0110720AA0F0720B00F072094
:101C0000FFFF1820BB47EFDF340019207FF0077E6D
:101C1000A80F0720C00F0720AC0F0720FB470800C4
:101C2000A4470800B647080098470800EF47080097
:101C3000032B40F08E8000F0E3F803A900F0C2F817
:101C400003A8BDF80A10FFF7CDFD7EE0D2B238E060
:101C5000062E06D1BDF80A20092A7DD8D2B2414904
:101C60002FE0072E4FF0000473D1BDF80A902C80AE
:101C70003C80FFF717FE4FF0090882462146424696
:101C800003A801F0D9FD01238DF81130C0238DF890
:101C90001330FA238DF814302B8803A943444246AD
:101CA0002046ADF80E308DF80C808DF80D608DF863
:101CB00010A02C80A7F80090FFF774FDFFF7F2FD4D
:101CC00044E002B90A780020FFF76CFD3EE0072BE4
:101CD0003FD0082B04D1244B20461968C9B21EE01E
:101CE000092B17D1EB0634D10021204850F82130C0
:101CF0000BB10131F9E700F039FA9DF806201A4BD3
:101D00001A601B4B02221A604FF48042A3F5FC7349
:101D10009A611BE00A2B05D1164B0020197800F0C0
:101D2000BDFA13E00B2B11D19DF80620114B1A6060
:101D30000CE000F039FA104B00211980BDF80A20A0
:101D40000E4B01A81A80FFF78DFD10B100F03CFA90
:101D500004E000F0E3FA01E00249B3E708B0BDE8AF
:101D6000F08700BF0D480800C40F07209800072027
:101D7000F8C10A40BC0F0720A80F0720C00F07209A
:101D800070B544680E4600254CB1236820465B6858
:101D900031469847002804DB0544E468F4E7284608
:101DA00070BD4FF0FF3070BD38B544680D463CB192
:101DB000236820469B682946984710B9E468F6E7EF
:101DC000204638BD38B544680D463CB123682046EE
:101DD0002946DB689847E4680544F6E72C7038BD6F
:101DE00038B544680D463CB1236820461B68294637
:101DF000984718B9E468F6E7204638BD012038BD99
:101E0000074A136813F0010107D1064B022018702E
:101E1000042058705960012313600248704700BFC6
:101E2000D00F0720C80F0720044BD3F80002D3F8C7
:101E30000432C01AC0F30800704700BFD40F072057
:101E400040F2FF1070470000064BD3F80012D3F8A1
:101E5000042291421ABFD3F80422985C4FF0FF305D
:101E6000704700BFD40F072013B5026802AB03F818
:101E7000011D546819460122A04702B010BD0000A0
:101E800038B50F4B0446D3F80012D3F80422914220
:101E900013D0D3F8042202209D5CD3F8042201322F
:101EA000C2F30802C3F80422FFF7F0FB18B123685D
:101EB0002046DB699847284638BD4FF0FF3038BDD3
:101EC000D40F07200320FFF7FEBC0000F8B5184B25
:101ED00053E8003F164E13B1BFF32F8FF8BD012317
:101EE00046E80033002BF2D1124BD3F800421F46D4
:101EF0000134C4F30804D7F804320E4D9C4214D0C8
:101F00000220FFF7C3FB20B90B4B4FF480421A604D
:101F10000BE00220FFF70EFCD5F80032C5F80042B6
:101F20000134E854C4F30804E5E700233360F8BD46
:101F3000DC110720D40F072028C20A4010B5094B36
:101F40000446DB7903F0FF0043B10320FFF704FCF4
:101F5000002805DC01236360002010BD01236360BD
:101F600010BD00BFC400072003780349023303708B
:101F700042220020FFF716BC82480800037803497C
:101F80000233037042220020FFF70CBC40480800D7
:101F900008B502784378A12A08D1212B4FF0000020
:101FA00029D117490722FFF7FDFB25E0212A25D17A
:101FB000202B04D107211248FFF746FC1CE0222BFE
:101FC00010D182780E4BDA711A68B2F5966F13D180
:101FD000DB79DB0703D4FA20FFF7DEF90CE0FFF72B
:101FE000E1F909E0232B09D18378C27843EA022280
:101FF000044B1A6000E008BD012008BD002008BDA8
:10200000C4000720C0000720044B00225A604FF490
:102010007A729A60024A1A60704700BFE011072086
:1020200020480800014B1860704700BF7409072062
:1020300010B500232A4A002442F82340294A42F8D6
:10204000234001330A2BF5D12820FEF75DFEFEF771
:1020500051FE2046FEF79AFEFEF7A2FE224B4FF4F9
:10206000807283F828435A60204B2046D3F800281A
:1020700022F08072C3F80028D3F8002842F00072E2
:10208000C3F80028D3F8002822F08072C3F8002893
:10209000D3F8002822F48052C3F80028D3F800288F
:1020A00042F48052C3F80028D3F8002842F40042DA
:1020B000C3F80028D3F8002822F48042C3F800288F
:1020C0001A6822F480521A601A6822F440621A6078
:1020D000D3F8002842F48042C3F8002810BD00BFA6
:1020E0001C120720F411072000E100E000C00A40A4
:1020F000114B10B5196872B6BFF35F8F1A460023F3
:1021000013600E4BD3F800081C4620F48040C3F83F
:102110000008D4F80408094B4004FAD5186820F4E4
:10212000807018600820986121B101231360BFF30B
:102130005F8F62B610BD00BFCC00072000C00A4010
:10214000094B00F00F0000F1400243F82210012279
:102150008240D9690A43DA6103F5987353F8203055
:102160005B0300D4FEE7704700C00A4030B501238E
:102170008B4214D20A4A50F8045F03F1400442F83B
:10218000245001249C40D5692C43D461054A1A444B
:1021900092001268520300D4FEE70133E8E730BD35
:1021A00000C00A404CB00210024BD3F83031DB07BC
:1021B000FAD5704700C00A40024BD3F830319B0774
:1021C000FAD5704700C00A40034B0122C3F86021D2
:1021D000024B00221A60704700C00A401C12072000
:1021E000034B0222C3F86021024B00221A607047A1
:1021F00000C00A40F4110720024BD3F8300100F070
:102200000400704700C00A40024B0422C3F860215A
:10221000704700BF00C00A40F8B51546C20302F17E
:102220000052034602F5C012980000F1804000F50C
:102230002C24D4F83041E407F6D5174C3BB9266876
:102240002E44402E06D92568C5F1400502E000263F
:1022500044F8236054F8236016440022AA4203D0B5
:102260008F5CB7540132F9E754F823202A4444F82C
:10227000232033B9084B1B68402B0BD1FFF7A4FF79
:1022800008E000F52C230122C3F860214FF48042BE
:10229000C3F820222846F8BD1C120720074B53F82C
:1022A000202002EBC03202F1005202F5C012117080
:1022B00053F82020013243F8202070471C120720D9
:1022C000084A034652F8201001EBC03101F10051D9
:1022D00001F5C011087852F82310013142F823109B
:1022E000704700BFF411072070B50B4CC30303F116
:1022F000005354F8205003F5C0131D4400239342AB
:1023000003D0EE5CCE540133F9E754F82020134497
:1023100044F8203070BD00BFF4110720034B0122A8
:10232000DA614FF40022C3F8F021704700C00A4080
:10233000034B4C3053F82000C0F30A50704700BFE5
:1023400000C00A40830003F1804303F52C230222DE
:10235000C3F860214FF48042C3F82022024B0022D0
:1023600043F82020704700BFF4110720830003F1D9
:10237000804303F52C230122C3F860214FF48042EF
:10238000C3F82022024B002243F82020704700BFF0
:102390001C120720064B00F07F001A6822F07F0213
:1023A00002431A601A6842F080021A60704700BF48
:1023B00000C00A40024B1A6801321A60704700BF21
:1023C00044120720014B1868704700BF44120720D1
:1023D0007047000081F0004102E000BF83F000433D
:1023E00030B54FEA41044FEA430594EA050F08BFB0
:1023F00090EA020F1FBF54EA000C55EA020C7FEA74
:10240000645C7FEA655C00F0E2804FEA5454D4EBF0
:102410005555B8BF6D420CDD2C4480EA020281EABA
:10242000030382EA000083EA010180EA020281EAF2
:102430000303362D88BF30BD11F0004F4FEA013144
:102440004FF4801C4CEA113102D0404261EB410153
:1024500013F0004F4FEA03334CEA133302D05242D9
:1024600063EB430394EA050F00F0A780A4F1010495
:10247000D5F1200E0DDB02FA0EFC22FA05F28018CF
:1024800041F1000103FA0EF2801843FA05F35941B5
:102490000EE0A5F120050EF1200E012A03FA0EFC34
:1024A00028BF4CF0020C43FA05F3C01851EBE3715E
:1024B00001F0004507D54FF0000EDCF1000C7EEB7B
:1024C00000006EEB0101B1F5801F1BD3B1F5001FB9
:1024D0000CD349085FEA30004FEA3C0C04F10104D8
:1024E0004FEA445212F5800F80F09A80BCF1004F01
:1024F00008BF5FEA500C50F1000041EB045141EA83
:10250000050130BD5FEA4C0C404141EB010111F483
:10251000801FA4F10104E9D191F0000F04BF01462E
:102520000020B1FA81F308BF2033A3F10B03B3F10C
:1025300020020CDA0C3208DD02F1140CC2F10C029C
:1025400001FA0CF021FA02F10CE002F11402D8BFFA
:10255000C2F1200C01FA02F120FA0CFCDCBF41EAC6
:102560000C019040E41AA2BF01EB0451294330BD95
:102570006FEA04041F3C1CDA0C340EDC04F1140472
:10258000C4F1200220FA04F001FA02F340EA030049
:1025900021FA04F345EA030130BDC4F10C04C4F18F
:1025A000200220FA02F001FA04F340EA030029466F
:1025B00030BD21FA04F0294630BD94F0000F83F4B9
:1025C000801306BF81F480110134013D4EE77FEA9C
:1025D000645C18BF7FEA655C29D094EA050F08BFE8
:1025E00090EA020F05D054EA000C04BF19461046C9
:1025F00030BD91EA030F1EBF0021002030BD5FEA0D
:10260000545C05D14000494128BF41F0004130BD34
:1026100014F580043CBF01F5801130BD01F0004588
:1026200045F0FE4141F470014FF0000030BD7FEAFB
:10263000645C1ABF194610467FEA655C1CBF0B46F6
:10264000024650EA013406BF52EA033591EA030F0D
:1026500041F4002130BD00BF90F0000F04BF002105
:10266000704730B54FF4806404F132044FF0000538
:102670004FF0000150E700BF90F0000F04BF0021B1
:10268000704730B54FF4806404F1320410F0004517
:1026900048BF40424FF000013EE700BF42004FEA12
:1026A000E2014FEA31014FEA02701FBF12F07F438F
:1026B00093F07F4F81F06051704792F0000F14BF8C
:1026C00093F07F4F704730B54FF4607401F00045D0
:1026D00021F0004120E700BF50EA010208BF704727
:1026E00030B54FF000050AE050EA010208BF70471C
:1026F00030B511F0004502D5404261EB41014FF485
:10270000806404F132045FEA915C3FF4DCAE4FF088
:1027100003025FEADC0C18BF03325FEADC0C18BF6F
:10272000033202EBDC02C2F1200300FA03FC20FAC0
:1027300002F001FA03FE40EA0E0021FA02F114440D
:10274000C1E600BF70B54FF0FF0C4CF4E06C1CEA22
:1027500011541DBF1CEA135594EA0C0F95EA0C0F97
:1027600000F0DEF82C4481EA030621EA4C5123EA0A
:102770004C5350EA013518BF52EA033541F4801139
:1027800043F4801338D0A0FB02CE4FF00005E1FBEC
:1027900002E506F00042E0FB03E54FF00006E1FB36
:1027A00003569CF0000F18BF4EF0010EA4F1FF0479
:1027B000B6F5007F64F5407404D25FEA4E0E6D41B9
:1027C00046EB060642EAC62141EA55514FEAC520CA
:1027D00040EA5E504FEACE2EB4F1FD0C88BFBCF546
:1027E000E06F1ED8BEF1004F08BF5FEA500E50F1F7
:1027F000000041EB045170BD06F0004646EA0101BD
:1028000040EA020081EA0301B4EB5C04C2BFD4EBEE
:102810000C0541EA045170BD41F480114FF0000EE7
:10282000013C00F3AB8014F1360FDEBF002001F055
:10283000004170BDC4F10004203C35DA0C341BDCCF
:1028400004F11404C4F1200500FA05F320FA04F0A1
:1028500001FA05F240EA020001F0004221F00041D5
:1028600010EBD37021FA04F642EB06015EEA430E48
:1028700008BF20EAD37070BDC4F10C04C4F1200578
:1028800000FA04F320FA05F001FA04F240EA02002B
:1028900001F0004110EBD37041F100015EEA430EFC
:1028A00008BF20EAD37070BDC4F1200500FA05F21C
:1028B0004EEA020E20FA04F301FA05F243EA02039B
:1028C00021FA04F001F0004121FA04F220EA0200AA
:1028D00000EBD3705EEA430E08BF20EAD37070BDF0
:1028E00094F0000F0FD101F00046400041EB0101D0
:1028F00011F4801F08BF013CF7D041EA060195F0B2
:10290000000F18BF704703F00046520043EB03036B
:1029100013F4801F08BF013DF7D043EA0603704758
:1029200094EA0C0F0CEA135518BF95EA0C0F0CD063
:1029300050EA410618BF52EA4306D1D181EA0301A9
:1029400001F000414FF0000070BD50EA410606BFA3
:102950001046194652EA430619D094EA0C0F02D1E8
:1029600050EA013613D195EA0C0F05D152EA03362D
:102970001CBF104619460AD181EA030101F000414B
:1029800041F0FE4141F470014FF0000070BD41F094
:10299000FE4141F4780170BD70B54FF0FF0C4CF46E
:1029A000E06C1CEA11541DBF1CEA135594EA0C0F8D
:1029B00095EA0C0F00F0A7F8A4EB050481EA030EDA
:1029C00052EA03354FEA013100F088804FEA0333C1
:1029D0004FF0805545EA131343EA12634FEA02228F
:1029E00045EA111545EA10654FEA00260EF0004150
:1029F0009D4208BF964244F1FD0404F5407402D2A2
:102A00005B084FEA3202B61A65EB03055B084FEA32
:102A100032024FF480104FF4002CB6EB020E75EB2F
:102A2000030E22BFB61A754640EA0C005B084FEA57
:102A30003202B6EB020E75EB030E22BFB61A7546D4
:102A400040EA5C005B084FEA3202B6EB020E75EB1F
:102A5000030E22BFB61A754640EA9C005B084FEA97
:102A60003202B6EB020E75EB030E22BFB61A7546A4
:102A700040EADC0055EA060E18D04FEA051545EA93
:102A800016754FEA06164FEAC30343EA52734FEA3C
:102A9000C2025FEA1C1CC0D111F4801F0BD141EAB5
:102AA00000014FF000004FF0004CB6E711F4801F1A
:102AB00004BF01430020B4F1FD0C88BFBCF5E06FFA
:102AC0003FF6AFAEB5EB030C04BFB6EB020C5FEA0A
:102AD000500C50F1000041EB045170BD0EF0004E5F
:102AE0004EEA113114EB5C04C2BFD4EB0C0541EA91
:102AF000045170BD41F480114FF0000E013C90E68E
:102B000045EA060E8DE60CEA135594EA0C0F08BF51
:102B100095EA0C0F3FF43BAF94EA0C0F0AD150EA50
:102B200001347FF434AF95EA0C0F7FF425AF1046E3
:102B300019462CE795EA0C0F06D152EA03353FF40B
:102B4000FDAE1046194622E750EA410618BF52EA88
:102B500043067FF4C5AE50EA41047FF40DAF52EA5C
:102B600043057FF4EBAE12E74FF0FF3C06E000BFF9
:102B70004FF0010C02E000BF4FF0010C4DF804CD06
:102B80004FEA410C7FEA6C5C4FEA430C18BF7FEAC6
:102B90006C5C1BD001B050EA410C0CBF52EA430CF4
:102BA00091EA030F02BF90EA020F0020704710F174
:102BB000000F91EA030F58BF994208BF90422CBF03
:102BC000D8176FEAE37040F0010070474FEA410CFC
:102BD0007FEA6C5C02D150EA013C07D14FEA430C1A
:102BE0007FEA6C5CD6D152EA033CD3D05DF8040B8B
:102BF000704700BF8446104662468C4619466346BD
:102C000000E000BF01B5FFF7B7FF002848BF10F193
:102C1000000F01BD4DF808EDFFF7F4FF0CBF0120D8
:102C200000205DF808FB00BF4DF808EDFFF7EAFF54
:102C300034BF012000205DF808FB00BF4DF808ED0F
:102C4000FFF7E0FF94BF012000205DF808FB00BF04
:102C50004DF808EDFFF7CEFF94BF012000205DF88E
:102C600008FB00BF4DF808EDFFF7C4FF34BF01209B
:102C700000205DF808FB00BF4A0011D212F50012D7
:102C800011D20DD56FF47873B3EB62520ED44FEAC4
:102C9000C12343F0004343EA505323FA02F0704744
:102CA0004FF00000704750EA013002D14FF0FF3082
:102CB00070474FF00000704780F0004002E000BF16
:102CC00081F0004142001FBF5FEA410392EA030F17
:102CD0007FEA226C7FEA236C6AD04FEA1262D2EB61
:102CE0001363C1BFD218414048404140B8BF5B4266
:102CF000192B88BF704710F0004F40F4000020F0FF
:102D00007F4018BF404211F0004F41F4000121F014
:102D10007F4118BF494292EA030F3FD0A2F101025E
:102D200041FA03FC10EB0C00C3F1200301FA03F19C
:102D300000F0004302D5494260EB4000B0F5000FBF
:102D400013D3B0F1807F06D340084FEA310102F17E
:102D50000102FE2A51D2B1F1004F40EBC25008BF30
:102D600020F0010040EA03007047490040EB0000FA
:102D700010F4000FA2F10102EDD1B0FA80FCACF129
:102D8000080CB2EB0C0200FA0CF0AABF00EBC25028
:102D900052421843BCBFD0401843704792F0000F16
:102DA00081F4000106BF80F400000132013BB5E769
:102DB0004FEA41037FEA226C18BF7FEA236C21D0DF
:102DC00092EA030F04D092F0000F08BF0846704744
:102DD00090EA010F1CBF0020704712F07F4F04D112
:102DE000400028BF40F00040704712F100723CBF25
:102DF00000F50000704700F0004343F0FE4040F44F
:102E0000000070477FEA226216BF08467FEA23630C
:102E10000146420206BF5FEA412390EA010F40F4F7
:102E2000800070474FF0000304E000BF10F0004343
:102E300048BF40425FEA000C08BF704743F096432A
:102E400001464FF000001CE050EA010208BF704745
:102E50004FF000030AE000BF50EA010208BF7047CC
:102E600011F0004302D5404261EB41015FEA010CE1
:102E700002BF84460146002043F0B64308BFA3F1D9
:102E80008053A3F50003BCFA8CF2083AA3EBC253BB
:102E900010DB01FA02FC634400FA02FCC2F12002DA
:102EA000BCF1004F20FA02F243EB020008BF20F011
:102EB0000100704702F1200201FA02FCC2F1200277
:102EC00050EA4C0021FA02F243EB020008BF20EA6C
:102ED000DC7070474FF0FF0C1CEAD0521EBF1CEA9A
:102EE000D15392EA0C0F93EA0C0F6FD01A4480EA88
:102EF000010C400218BF5FEA41211ED04FF0006371
:102F000043EA501043EA5111A0FB01310CF000409C
:102F1000B1F5000F3EBF490041EAD3715B0040EAC2
:102F2000010062F17F02FD2A1DD8B3F1004F40EB92
:102F3000C25008BF20F00100704790F0000F0CF065
:102F4000004C08BF49024CEA502040EA51207F3A29
:102F5000C2BFD2F1FF0340EAC250704740F4000004
:102F60004FF00003013A5DDC12F1190FDCBF00F0F5
:102F700000407047C2F10002410021FA02F1C2F1A3
:102F8000200200FA02FC5FEA310040F1000053EA3F
:102F90004C0308BF20EADC70704792F0000F00F08D
:102FA000004C02BF400010F4000F013AF9D040EA93
:102FB0000C0093F0000F01F0004C02BF490011F427
:102FC000000F013BF9D041EA0C018FE70CEAD15325
:102FD00092EA0C0F18BF93EA0C0F0AD030F0004CA5
:102FE00018BF31F0004CD8D180EA010000F0004059
:102FF000704790F0000F17BF90F0004F084691F017
:10300000000F91F0004F14D092EA0C0F01D1420250
:103010000FD193EA0C0F03D14B0218BF084608D119
:1030200080EA010000F0004040F0FE4040F4000063
:10303000704740F0FE4040F4400070474FF0FF0CF6
:103040001CEAD0521EBF1CEAD15392EA0C0F93EA3D
:103050000C0F69D0A2EB030280EA010C49024FEA8F
:10306000402037D04FF0805343EA111143EA101348
:103070000CF000408B4238BF5B0042F17D024FF400
:10308000000C8B4224BF5B1A40EA0C00B3EB510FDB
:1030900024BFA3EB510340EA5C00B3EB910F24BFC4
:1030A000A3EB910340EA9C00B3EBD10F24BFA3EB49
:1030B000D10340EADC001B0118BF5FEA1C1CE0D111
:1030C000FD2A3FF650AF8B4240EBC25008BF20F0C4
:1030D000010070470CF0004C4CEA50207F32C2BF18
:1030E000D2F1FF0340EAC250704740F400004FF0B5
:1030F0000003013A37E792F0000F00F0004C02BFE6
:10310000400010F4000F013AF9D040EA0C0093F0AF
:10311000000F01F0004C02BF490011F4000F013B09
:10312000F9D041EA0C0195E70CEAD15392EA0C0F71
:1031300008D142027FF47DAF93EA0C0F7FF470AFA9
:10314000084676E793EA0C0F04D14B023FF44CAFEC
:1031500008466EE730F0004C18BF31F0004CCAD181
:1031600030F000427FF45CAF31F000437FF43CAFBD
:103170005FE700BF4FF0FF3C06E000BF4FF0010CDF
:1031800002E000BF4FF0010C4DF804CD4FEA4002C1
:103190004FEA41037FEA226C18BF7FEA236C11D00B
:1031A00001B052EA530C18BF90EA010F58BFB2EBBE
:1031B000030088BFC81738BF6FEAE17018BF40F03E
:1031C000010070477FEA226C02D15FEA402C05D1F2
:1031D0007FEA236CE4D15FEA412CE1D05DF8040B77
:1031E000704700BF844608466146FFE70FB5FFF70A
:1031F000C9FF002848BF10F1000F0FBD4DF808EDC2
:10320000FFF7F4FF0CBF012000205DF808FB00BFB2
:103210004DF808EDFFF7EAFF34BF012000205DF80C
:1032200008FB00BF4DF808EDFFF7E0FF94BF012059
:1032300000205DF808FB00BF4DF808EDFFF7D2FF56
:1032400094BF012000205DF808FB00BF4DF808ED99
:10325000FFF7C8FF34BF012000205DF808FB00BF66
:1032600042000ED2B2F1FE4F0BD34FF09E03B3EBF0
:10327000126209D44FEA002343F0004323FA02F01C
:1032800070474FF00000704712F1610F01D1420208
:1032900002D14FF0FF3070474FF00000704700BF81
:1032A00070B50F4E0F4D761BB61007D0043D0024AD
:1032B000013455F8043F9847A642F9D10A4E0B4D08
:1032C00001F004FB761BB61008D0043D0024013445
:1032D00055F8043F9847A642F9D170BD70BD00BFB4
:1032E000D8480800D8480800EC480800D84808002A
:1032F000024B0146186800F003B800BFF80407202D
:103300002DE9F04F01F10B05162D83B0064627D9A4
:1033100035F0070527D4A94225D8304600F0D6FA63
:10332000B5F5FC7F26D2C14F4FEAD50C07EBCC0395
:10333000DC689C4200F0D2816368E26823F00303FA
:1033400023445868A16840F00105CA603046916086
:103350005D6000F0BDFA0834204603B0BDE8F08F90
:103360001025A942D9D900240C232046336003B08C
:10337000BDE8F08F5FEA552C00F08980BCF1040FA6
:1033800000F260814FEA951C0CF1380C4FEA4C01B9
:10339000A64F07EB8101CC68A14205D10CE0002BC0
:1033A00079DAE468A14207D0626822F00302531B75
:1033B0000F2BF4DD0CF1FF3C0CF1010C9B4B3C6935
:1033C00003F1080E744500F07E81616821F003016D
:1033D0004A1B0F2A00F36481002AC3F814E0C3F8E3
:1033E00010E069DAB1F5007F80F03A81C9088A10EF
:1033F0004FF0010808FA02F803EBC1015A68886827
:1034000048EA0202A060E1605A608C60C4604FEA42
:10341000AC030120984090425BD8024206D12CF0C8
:10342000030C400002420CF1040CFAD007EBCC086C
:103430004446E146E3689C4207D146E1002A80F217
:103440005781DB689C4200F04081596821F00301FC
:103450004A1B0F2AF2DD1C4654F808CFD96845F004
:10346000010942F001081D44C3F804903046CCF82D
:103470000C10C1F808C07D613D61C5F80CE0C5F8CD
:1034800008E0C5F80480AA5000F022FA64E77E2123
:103490004FF03F0C7CE722445068E368A16840F09D
:1034A0000105CB6030469960556000F011FA083490
:1034B000204603B0BDE8F08F21444B68304643F00E
:1034C00001034B6000F004FA0834204603B0BDE865
:1034D000F08FBC68636823F00309A94504D3C5EBEA
:1034E00009030F2B00F39180514B524A196813685E
:1034F00005EB010A013304EB090B00F061810AF5C9
:10350000805A0AF10F0A2AF47F6A2AF00F0A30461D
:103510005146019200F0DEF9B0F1FF3F8046019A7A
:1035200000F00181834500F2FB80DFF814C1C34540
:10353000DCF800305344CCF8003000F04A811268C7
:103540003C4901321BBFCBEB080B5B44C1F8008048
:10355000CCF8003018F0070300F01481C3F1080222
:10356000C3F5805390440833C244CAF30B0ACAEB34
:10357000030A51463046CDF804C000F0ABF9431CB5
:10358000DDF804C000F03581C8EB0002524442F07F
:103590000102DCF80030BC425344C7F80880CCF884
:1035A0000030C8F80420DFF898A015D0B9F10F0F4B
:1035B00040F2EB806168A9F10C0222F0070201F0F1
:1035C000010142EA010E0520A1180F2AC4F804E007
:1035D0004860886000F21181174ABC6811688B420C
:1035E00088BF1360154A11688B4288BF13606268F8
:1035F00022F003029542C5EB020301D80F2B04DC35
:10360000304600F065F90024A6E645F0010243F0DB
:103610000103254462603046BD606B6000F058F9DC
:103620000834204603B0BDE8F08F00BFFC0407203B
:1036300050120720080907204C12072048120720C3
:1036400054120720BCF1140F61D9BCF1540F00F2E1
:103650008F804FEA153C0CF16E0C4FEA4C0197E657
:103660004B0A042B58D9142B00F2AD8003F15B02F6
:10367000500007EB80008368DFF8B881834200F0D8
:103680008A805A6822F00302914202D29B689842D3
:10369000F7D1D9687A68E160A3608C60DC60B6E637
:1036A00045F0010742F001012544676030465D6145
:1036B0001D61C5F80CE0C5F808E06960AA5008343F
:1036C00000F006F948E65A68A1E609F1010919F087
:1036D000030F04F108047FF4ADAE2DE004F10803FC
:1036E0006469A34208BF0CF1020C3FF467AE23E605
:1036F000194448681C4654F8082FDB6840F001055F
:103700004D603046D3609A6000F0E2F824E60CF198
:103710005B0C4FEA4C013BE68A0938325000A8E7BF
:10372000BC423FF402AFBC68626822F0030261E76A
:10373000D8F8008098457AD11CF0030FA8F108034F
:103740000CF1FF3CF4D17B6823EA00037B6040006E
:1037500098423FF6BEAE00283FF4BBAE0342CC46D3
:103760007FF464AE400003420CF1040CFAD05DE635
:10377000BCF5AA7F19D84FEAD53C0CF1770C4FEA7B
:103780004C0105E64FF48053EEE60123C8F80430FF
:10379000444600222EE7921001209040D8F80420E1
:1037A00019460243C8F8042075E740F254539C457B
:1037B0001BD84FEA954C0CF17C0C4FEA4C01E7E525
:1037C0000AF1100AA3E6542B1FD80A0B6E325000E0
:1037D0004FE7CBF30B0100297FF4B1AE0AEB0901EF
:1037E000BA6841F001015160F6E6FC214FF07E0C11
:1037F000CEE501224FF0000ACBE604F10801304685
:1038000000F028F9DAF80030E6E6B3F5AA7F03D82D
:10381000CA0B773250002CE740F25452934203D83F
:103820008A0C7C32500024E7FC207E2221E77B6852
:103830008DE700BFFC040720F0B4840743D0541E7A
:10384000002A3ED0CDB2034603E0621E002C38D0E1
:10385000144603F8015B9A07F7D1032C2AD9CDB29D
:1038600045EA05250F2C45EA054515D9A4F11007B1
:103870003F0903F1100606EB07161A46156055605E
:103880009560D5601032B242F8D104F00F040137D0
:10389000032C03EB07130DD91E462246043A032AD4
:1038A00046F8045BFAD8221F22F0030204321344C4
:1038B00004F003042CB1C9B21C4403F8011BA34259
:1038C000FBD1F0BC704714460346C6E7704700BF03
:1038D000704700BF38B5074C0023054608462360F3
:1038E000FDF79AFC431C00D038BD2368002BFBD0A9
:1038F0002B6038BD7C12072020F0030110F003007C
:10390000C0F1000051F8043B00F1040C4FEACC0C6C
:103910006FF000021CBF22FA0CF213434FF0010CAF
:103920004CEA0C2C4CEA0C4CA3EB0C0222EA0302EE
:1039300012EACC1204BF51F8043B0430F4D013F067
:10394000FF0F1FBF013013F47F4F013013F47F0FBF
:1039500018BF0130704700BF024B0A460146186885
:1039600000F044B9F8040720024B13B1024800F0FC
:1039700005B87047000000008939080001460020A2
:103980000246034600F046B938B5094D094C641BA0
:10399000A41018BF05EB840505D0013C55F8043D83
:1039A0009847002CF9D1BDE8384000F09FBF00BF18
:1039B000F8480800FC480800F8B5234D0F460446B7
:1039C000FFF784FFAB685E6826F00306F11B01F683
:1039D000EF7121F47F6121F00F01A1F58057B7F558
:1039E000805F07DB20460021FFF774FFAB6833449C
:1039F000984204D02046FFF76BFF0020F8BD204618
:103A00007942FFF767FF01300DD0104BAA681968A3
:103A1000F61B46F001062046C91B56601960FFF7E9
:103A200057FF0120F8BD20460021FFF753FFAB6888
:103A3000C21A0F2ADEDD064D04492D6842F001024C
:103A4000401B5A600860D5E7FC0407205412072089
:103A5000080907202DE9F0410D460646002955D0FA
:103A6000FFF734FF55F8041CDFF870C1A5F1080416
:103A700021F00103E218DCF808005768904227F0B3
:103A8000030768D011F00101576032D00021D0192E
:103A90004068C00706D43B44906800294DD0D268E6
:103AA000C260906043F001026260E350E1B9B3F597
:103AB000007F2DD35A0A042A69D89809383041006A
:103AC0000CEB810CDCF808204449624565D0516854
:103AD00021F003018B4202D292689445F7D1D3685A
:103AE000E360A2609C60D4603046BDE8F041FFF71F
:103AF000EFBE55F8085C0CF10808641BA0682B4465
:103B0000404542D0E568C560A860C0E7BDE8F081E7
:103B1000DB089A1001209040DCF804100CEBC30382
:103B20009A680143A260E360CCF8041030469C60C0
:103B3000D460BDE8F041FFF7CBBE294DA842AED11D
:103B400043F00102CCF81440CCF81040E060A060D3
:103B50006260E350C8E71F44CB0707D455F8081C40
:103B6000641AE368A2680F44D3609A601D4B47F063
:103B700001021B6862609F42CCF80840B4D31A4B24
:103B800030461968FFF718FFAEE701217FE7142AD6
:103B90000BD802F15B00410092E7801001258540BF
:103BA00048681346284348609AE7542A03D8180BFC
:103BB0006E30410084E7B2F5AA7F03D8D80B773086
:103BC00041007DE740F254518A4203D8980C7C3082
:103BD000410075E7FC217E2072E700BFFC0407204E
:103BE00004050720040907205012072038B5084CA7
:103BF00000230546084611462360FDF740FB431CA1
:103C000000D038BD2368002BFBD02B6038BD00BF2F
:103C10007C120720F0B5274C85B026680746D6F8F9
:103C20004841002C40D065681F2D1EDD224818B980
:103C30004FF0FF3005B0F0BD4FF4C8700391029211
:103C40000193FFF755FB03990446029A019B002854
:103C5000EED0D6F848510020256060600546C6F8D1
:103C60004841C4F88801C4F88C013FB96B1C00209E
:103C70000235636044F8251005B0F0BD0126AE4062
:103C800004EB8500C0F88820D4F88821022F42EA8E
:103C90000602C4F88821C0F80831E7D1D4F88C3185
:103CA0001E43C4F88C61E1E706F5A674C6F84841E6
:103CB000B9E700BFC8480800F1320800000E0E4006
:103CC000000100000B0000000100000000000000E7
:103CD00004000000FFFFFFFF000E0E400002000086
:103CE0000B000000010000000000000004000000C4
:103CF000FFFFFFFF00100E40000000020C0000005C
:103D0000020000000000000014000000FFFFFF00A0
:103D100000120E40000000100D0000000200000024
:103D20000000000014000000FFFFFF0E00120E4014
:103D3000000000040D000000020000000000000070
:103D400014000000FFFFFF0D00120E4000000002F3
:103D50000D00000002000000000000001400000040
:103D6000FFFFFF0C00120E40000000010D000000DC
:103D700002000000000000000C000000FFFF07FF31
:103D800000120E40000080000D0000000200000044
:103D9000000000000C000000FFFF06FF00120E40B4
:103DA000000040000D0000000200000000000000C4
:103DB0000C000000FFFF05FF00120E400000200075
:103DC0000D00000002000000000000000C000000D8
:103DD000FFFF04FF00120E40000000200D00000055
:103DE000020000000000000014000000FFFFFF0FB1
:103DF00000140E40800000000E00000002000000D1
:103E00000000000014000000FFFFFF1000140E402F
:103E1000000100000E000000020000000000000091
:103E200014000000FFFFFF1100100E40000000080A
:103E30000C00000002000000000000001400000060
:103E4000FFFFFF0100140E40100000000E000000F4
:103E5000020000000000000004000000FFFFFFFF60
:103E600000140E40200000000E00000002000000C0
:103E70000000000004000000FFFFFFFF000E0E40E6
:103E8000002000000B000000010000000000000006
:103E900004000000FFFFFFFF000E0E4000100000B6
:103EA0000B00000001000000000000000400000002
:103EB000FFFFFFFF000E0E40000800000B00000097
:103EC000010000000000000004000000FFFFFFFFF1
:103ED000000E0E40000400000B0000000100000076
:103EE0000000000004000000FFFFFFFF00100E4074
:103EF000001000000C0000000100000000000000A5
:103F000004000000FFFFFFFF00100E400020000033
:103F10000C00000001000000000000000400000090
:103F2000FFFFFFFF00100E40000000040C00000027
:103F3000040000000000000004000000FFFFFFFF7D
:103F4000000E0E40004000000B00000004000000C6
:103F50000000000004000000FFFFFFFF000E0E4005
:103F6000008000000B0000000400000000000000C2
:103F700004000000FFFFFFFF00140E4001000000DE
:103F80000E0000000400000000000000040000001B
:103F9000FFFFFFFF00140E40020000000E000000B3
:103FA000040000000000000004000000FFFFFFFF0D
:103FB00000140E40040000000E0000000400000089
:103FC0000000000004000000FFFFFFFF00140E408F
:103FD000080000000E0000000400000000000000C7
:103FE00004000000FFFFFFFF00140E40400000002F
:103FF0000E000000040000000000000004000000AB
:10400000FFFFFFFF00140E40000200000E00000042
:10401000040000000000000004000000FFFFFFFF9C
:10402000000E0E40800000000B00000004000000A5
:104030000000000004000000FFFFFFFF00140E401E
:10404000000400000E00000004000000000000005A
:1040500004000000FFFFFFFF00120E4002000000FE
:104060000D0000000400000000000000040000003B
:10407000FFFFFFFF00120E40040000000D000000D3
:10408000040000000000000004000000FFFFFFFF2C
:1040900000120E40080000000D00000004000000A7
:1040A0000000000004000000FFFFFFFF00120E40B0
:1040B000100000000D0000000400000000000000DF
:1040C00004000000FFFFFFFF00120E402000000070
:1040D0000D000000040000000000000004000000CB
:1040E000FFFFFFFF00120E40400000000D00000027
:1040F000040000000000000004000000FFFFFFFFBC
:1041000000120E40800000000D00000004000000BE
:104110000000000004000000FFFFFFFF00120E403F
:10412000000100000D00000004000000000000007D
:1041300004000000FFFFFFFF00120E40000200001D
:104140000D0000000400000000000000040000005A
:10415000FFFFFFFF000E0E40000008000B000000F4
:10416000040000000000000004000000FFFFFFFF4B
:10417000000E0E40000010000B00000004000000C4
:104180000000000004000000FFFFFFFF00120E40CF
:10419000000008000D000000040000000000000006
:1041A00004000000FFFFFFFF00120E4000000400AB
:1041B0000D000000040000000000000004000000EA
:1041C000FFFFFFFF00120E40000002000D00000084
:1041D000040000000000000004000000FFFFFFFFDB
:1041E00000120E40000001000D000000040000005D
:1041F0000000000004000000FFFFFFFF00120E405F
:10420000008000000D00000004000000000000001D
:1042100004000000FFFFFFFF00120E4000400000FE
:104220000D00000004000000000000000400000079
:10423000FFFFFFFF00120E40002000000D000000F5
:10424000040000000000000004000000FFFFFFFF6A
:1042500000120E40001000000D00000004000000DD
:104260000000000004000000FFFFFFFF00100E40F0
:10427000000020000C00000004000000000000000E
:1042800004000000FFFFFFFF00100E400040000090
:104290000C0000000400000000000000040000000A
:1042A000FFFFFFFF000E0E40000001000B000000AA
:1042B0000300000000000000020000000007FFFFF4
:1042C000000E0E40000000010B0000000300000083
:1042D00000000000020000000106FFFF000E0E407B
:1042E000000080000B000000030000000000000040
:1042F000020000000205FFFF000E0E40000040001B
:104300000B0000000300000000000000020000009D
:104310000304FFFF000E0E40400000000B000000F1
:104320000300000000000000020000000403FF057D
:10433000000E0E40100000000B0000000300000003
:1043400000000000020000000502FFFF000E0E400A
:10435000080000000B000000030000000000000047
:10436000020000000601FF03000E0E4004000000E2
:104370000B0000000300000000000000020000002D
:104380000700FF0200100E40000002000C000000B9
:10439000030000000000000002000000080AFFFF08
:1043A00000100E40000004000C000000030000009C
:1043B0000000000002000000090BFFFF00100E408B
:1043C000000008000C0000000300000000000000D6
:1043D000020000000A0CFFFF00100E400000100059
:1043E0000C000000030000000000000002000000BC
:1043F0000B0DFFFF00100E40008000000C000000BD
:104400000300000000000000020000000C10FFFF8D
:1044100000100E40000001000C000000030000002E
:1044200000000000020000000D11FFFF000E0E4012
:10443000020000000B00000001000000000000006E
:10444000040000000EFFFFFF000E0E400100000000
:104450000B0000000100000000000000040000004C
:104460000FFFFFFF000E0E40000002000B000000D7
:10447000010000000000000004000000FFFFFFFF3B
:10448000000E0E40000004000B00000001000000C0
:104490000000000004000000FFFFFFFF00120E40BC
:1044A000000000400D0000000400000000000000BB
:1044B00004000000FFFFFFFF000E0E400000200080
:1044C0000B000000040000000000000004000000D9
:1044D000FFFFFFFF000E0E40000000020B00000077
:1044E000010000000000000004000000FFFFFFFFCB
:1044F000000E0E40000000040B0000000100000050
:104500000000000004000000FFFFFFFF000E0E404F
:10451000000000080B000000010000000000000087
:1045200004000000FFFFFFFF000E0E40000000101F
:104530000B0000000100000000000000040000006B
:10454000FFFFFFFF00100E40000080000C00000085
:10455000020000000000000004000000FFFFFFFF59
:10456000000E0E40000006000B00000001000000DD
:104570000000000005000000FFFFFFFF00100E40DC
:10458000003000000C0000000100000000000000EE
:1045900005000000FFFFFFFF000E0E4000030000BB
:1045A0000B000000010000000000000005000000FA
:1045B000FFFFFFFF000E0E40000C00000B0000008C
:1045C000010000000000000005000000FFFFFFFFE9
:1045D000000E0E40003000000B0000000100000043
:1045E0000000000005000000FFFFFFFF00140E4068
:1045F000300000000E00000002000000000000007B
:1046000005000000FFFFFFFF00100E40000C00003F
:104610000C00000001000000000000000400000089
:10462000FFFFFFFF00100E40000020000C00000004
:10463000020000000000000004000000FFFFFFFF78
:10464000000E0E40000000200B00000001000000E2
:104650000000000004000000FFFFFFFF00100E40FC
:10466000008000000C0000000100000000000000BD
:1046700004000000FFFFFFFF00100E40004000009C
:104680000C00000001000000000000000400000019
:10469000FFFFFFFF000E0E40030000000B000000B4
:1046A000010000000000000005000000FFFFFFFF08
:1046B00000100E4000C000000C00000001000000CF
:1046C0000000000005000000FFFFFFFF00000000E9
:1046D00000000000000000000000000000000000DA
:1046E00000000000FFFFFFFF0000000008000000C6
:1046F0001000000018000000400000005000000002
:104700006000000070000000000200004002000095
:1047100080020000C002000000030000400300000F
:1047200080030000C00300000D0A006E616E006986
:104730006E66006F7666000000000000000000005A
:10474000AD140800AD1208003D1408006B140800F9
:104750004F14080095140800D9130800011508002B
:10476000D513080000000000000000000000000059
:10477000AD140800AD1208003D1408006B140800C9
:104780004F14080095140800D11508000115080001
:10479000D51308000000000041726475696E6F2037
:1047A00044756500120100020000004041233E00F4
:1047B00000010102030104030904000000000000DD
:1047C000000000AAAAAAAAAAAAAAAAEEEEEEEEEEF3
:1047D000EEEEEEFEFFFFFFFFFFFFFFFFFFFFFF7F9D
:1047E000BFDFEFF7FBFDFC7EBFDFEFF7FBFD7E4198
:1047F000726475696E6F204C4C430012010002EF29
:1048000002014041233E000001010203010A0600AB
:104810000200000040010000000000000000000055
:10482000691E08003D1F0800291E0800811E08009F
:10483000491E0800C51E0800411E0800CD1E0800C4
:10484000080B00020202010009040000010202003C
:1048500000052400100105240101010424020605BD
:10486000240600010705810310001009040100025D
:104870000A0000000705020240000007058302400D
:104880000000080B000202020100090400000102FE
:104890000200000524001001052401010104240286
:1048A0000605240600010705810310001009040114
:1048B00000020A000000070502020002000705834B
:1048C0000200020043000000D0000720F8B500BF3E
:1048D000F8BC08BC9E4670476939080019010800F9
:1048E000DD0B08002119080009200800F8B500BFF9
:0C48F000F8BC08BC9E467047F5000800AC
:1048FC0072B6064B9A68D107FBD5054A5A609A687E
:10490C00D207FCD5034A044B1A60FEE7000A0E409E
:10491C000C01005A050000A5001A0E40A69BC43CD1
:10492C001800000000140E4000140E4000140E403D
:10493C0000140E4000120E400200000000120E4047
:10494C0007000000000E0E40000E0E40000E0E4040
:10495C00000E0E40000E0E40AAF1723F030500003F
:10496C0000120E400001020304191018171606005D
:10497C00010102030617000000120E4000120E4047
:10498C0000093D00FFFFFFFF322000003639000018
:10499C0066300000663100000000000000000000DE
:1049AC0000000000000000000000000000000000FB
:1049BC00FFFFFFFF00E10000000008000100000005
:1049CC0000000000BC030720240407208C040720EF
:1049DC0000000000000000000000000000000000CB
:1049EC0000000000000000000000000000000000BB
:1049FC0000000000C4480800000000000000000097
:104A0C00000000000000000000000000000000009A
:104A1C00000000000000000000000000000000008A
:104A2C00000000000000000000000000000000007A
:104A3C00000000000000000000000000000000006A
:104A4C00000000000000000000000000000000005A
:104A5C00000000000000000000000000000000004A
:104A6C000000000000000000010000000000000039
:104A7C000E33CDAB34126DE6ECDE05000B000000FE
:104A8C00000000000000000000000000000000001A
:104A9C00000000000000000000000000000000000A
:104AAC0000000000000000000000000000000000FA
:104ABC0000000000000000000000000000000000EA
:104DEC000000000000000000D000072000000000C0
:104DFC0000000000FC040720FC0407200405072029
:104E0C00040507200C0507200C05072014050720B6
:104E1C00140507201C0507201C0507202405072066
:104E2C00240507202C0507202C0507203405072016
:104E3C00340507203C0507203C05072044050720C6
:104E4C00440507204C0507204C0507205405072076
:104E5C00540507205C0507205C0507206405072026
:104E6C00640507206C0507206C05072074050720D6
:104E7C00740507207C0507207C0507208405072086
:104E8C00840507208C0507208C0507209405072036
:104E9C00940507209C0507209C050720A4050720E6
:104EAC00A4050720AC050720AC050720B405072096
:104EBC00B4050720BC050720BC050720C405072046
:104ECC00C4050720CC050720CC050720D4050720F6
:104EDC00D4050720DC050720DC050720E4050720A6
:104EEC00E4050720EC050720EC050720F405072056
:104EFC00F4050720FC050720FC0507200406072005
:104F0C00040607200C0607200C06072014060720B1
:104F1C00140607201C0607201C0607202406072061
:104F2C00240607202C0607202C0607203406072011
:104F3C00340607203C0607203C06072044060720C1
:104F4C00440607204C0607204C0607205406072071
:104F5C00540607205C0607205C0607206406072021
:104F6C00640607206C0607206C06072074060720D1
:104F7C00740607207C0607207C0607208406072081
:104F8C00840607208C0607208C0607209406072031
:104F9C00940607209C0607209C060720A4060720E1
:104FAC00A4060720AC060720AC060720B406072091
:104FBC00B4060720BC060720BC060720C406072041
:104FCC00C4060720CC060720CC060720D4060720F1
:104FDC00D4060720DC060720DC060720E4060720A1
:104FEC00E4060720EC060720EC060720F406072051
:104FFC00F4060720FC060720FC0607200407072000
:10500C00040707200C0707200C07072014070720AC
:10501C00140707201C0707201C070720240707205C
:10502C00240707202C0707202C070720340707200C
:10503C00340707203C0707203C07072044070720BC
:10504C00440707204C0707204C070720540707206C
:10505C00540707205C0707205C070720640707201C
:10506C00640707206C0707206C07072074070720CC
:10507C00740707207C0707207C070720840707207C
:10508C00840707208C0707208C070720940707202C
:10509C00940707209C0707209C070720A4070720DC
:1050AC00A4070720AC070720AC070720B40707208C
:1050BC00B4070720BC070720BC070720C40707203C
:1050CC00C4070720CC070720CC070720D4070720EC
:1050DC00D4070720DC070720DC070720E40707209C
:1050EC00E4070720EC070720EC070720F40707204C
:1050FC00F4070720FC070720FC07072004080720FB
:10510C00040807200C0807200C08072014080720A7
:10511C00140807201C0807201C0807202408072057
:10512C00240807202C0807202C0807203408072007
:10513C00340807203C0807203C08072044080720B7
:10514C00440807204C0807204C0807205408072067
:10515C00540807205C0807205C0807206408072017
:10516C00640807206C0807206C08072074080720C7
:10517C00740807207C0807207C0807208408072077
:10518C00840807208C0807208C0807209408072027
:10519C00940807209C0807209C080720A4080720D7
:1051AC00A4080720AC080720AC080720B408072087
:1051BC00B4080720BC080720BC080720C408072037
:1051CC00C4080720CC080720CC080720D4080720E7
:1051DC00D4080720DC080720DC080720E408072097
:1051EC00E4080720EC080720EC080720F408072047
:0C51FC00F408072000000200FFFFFFFF86
:04000003800009F17F
:00000001FF
