:0200000280007C
:1000000000800820C5060800A90F0800A90F0800F5
:10001000A90F0800A90F0800A90F080000000000A0
:10002000000000000000000000000000AB0F08000E
:10003000A90F080000000000AF0F0800B30F080070
:10004000A90F0800A90F0800A90F0800A90F0800B0
:10005000A90F0800A90F0800A90F0800A90F0800A0
:1000600051070800A90F080000000000E10C08007B
:10007000190D0800510D0800890D0800000000004E
:10008000000000006507080071070800A90F0800BC
:100090007D070800A90F0800A90F0800A90F080094
:1000A000A90F080000000000A90F0800A90F080010
:1000B000A90F0800A90F0800A90F0800A90F080040
:1000C000A90F0800A90F0800A90F0800A90F080030
:1000D000A90F080051050800A90F0800A90F080082
:1000E0003D070800A90F0800A90F0800A90F080084
:1000F000A90F080010B5054C237833B9044B13B190
:100100000448AFF300800123237010BDA40507202D
:1001100000000000A03C080008B5064B1BB10648D3
:100120000649AFF300800648036813B1054B03B1DD
:10013000984708BD00000000A03C0800A805072063
:10014000A03C08000000000070470000034B9A69C3
:10015000D2F1010238BF00229A61704700000C40C2
:1001600070B50023DCB2944207D2064C31F813601C
:100170002569013335432561F4E7BDE87040FFF799
:10018000E5BF00BF00000C40024B143153F82100C2
:1001900080B2704700000C4030B50023D8B29042C6
:1001A00007D2044831F81350446A01332C434462A7
:1001B000F4E730BD00000C4001390F2916D8DFE804
:1001C00001F0080A150C1515150E15151515151540
:1001D0001510042107E0082105E0102103E020218B
:1001E00001E04FF480011160014A1A60704700BFBE
:1001F000000E0E402DE9F84F994693000A3303F4A0
:10020000FF6300AFADEB030DEB46ADEB030D064610
:1002100088461446EA460025EBB2A3420AD2AB0058
:1002200038F815100BEB030230465344FFF7C4FFB8
:100230000135F1E722465346B86A594600F094F872
:10024000F86A252100F0CEF80F4B01221A60B9F1AF
:10025000000F01D009225A60304641462246FFF77E
:100260007FFFB9F1000F0AD0084B20225A60F0221C
:1002700083F82523304641462246FFF78DFF30465E
:10028000BD46BDE8F88F00BF00000C4000E100E073
:100290007047704742704360019A009B0170826012
:1002A000C360704710B50021044602F08BFD08B909
:1002B000002010BD204610BD70472DE9F04F4FEAD9
:1002C000011885B09A46ADEB0803083B02AF9D4686
:1002D00002AD38608B4691464C1E2B46621C07D0FF
:1002E00018467B60FFF7D4FF7B68013C1033F5E7CD
:1002F0000024E3B25B4514D27E6B19F8041056F863
:1003000024301AF804200093BE6B05EB041056F855
:10031000243001933E6B56F82430FFF7BBFF0134C5
:10032000E7E73E68A84486F800B07560A84505D0A8
:10033000A8F110084046FFF7ACFFF7E738680C3724
:10034000BD46BDE8F08F7047704770B50020C4B25D
:10035000944208D253F8204051F8205026680130CA
:1003600035432560F3E770BD70B50020C4B29442F8
:1003700008D253F8204051F82050666801303543C8
:100380006560F3E770BD70B50020C4B2944208D236
:1003900053F8204051F8205026690130354325613B
:1003A000F3E770BDF8B504460F4616461D46FFF745
:1003B000CCFF2046394632462B46FFF7E4FF204665
:1003C000F8BD70B50020C4B2944208D253F8204062
:1003D00051F82050266F013035432567F3E770BD93
:1003E000704770471E294FF0010202D8044B18686D
:1003F00002E0044B203918688A4002431A607047B3
:1004000010060E4000070E4070470000034BDA68EC
:10041000D2F1010238BF00229A60704700400940C3
:1004200070B50023DCB2944207D2064C31F8136059
:100430006568013335436560F4E7BDE87040FFF758
:10044000E5BF00BF00400940012902D0022902D0C7
:100450007047082100E020211160014A1A607047AE
:1004600000120E40000000002DE9F04F83B000AFF5
:10047000064697F83000144640007B60894601F03C
:100480003FFF0B4602462CA1D1E9000102F0C8F85B
:1004900002F0AEF9A3000A3303F4FF63ADEB030DE2
:1004A000EA46ADEB030D1FFA80FBE8460025EBB2F0
:1004B000A3420AD2AB0019F815100AEB030230462A
:1004C0004344FFF7C1FF0135F1E7786B51462246FF
:1004D0004346FFF749FF43462246786B5146FFF7F4
:1004E00070FFB86B2421FFF77DFF30464946224656
:1004F000FFF796FF0023DAB2A24207D2072A03D8F9
:100500000F4A590142F801B00133F4E77B6863B147
:100510000C4B40F20142C3F8382140F2D662C3F8D6
:1005200030210122DA67084A5A6330460C37BD464B
:10053000BDE8F08FAFF30080000000000082F440BF
:100540000C4209400040094000010100AFF3008067
:1005500010B500240B4B0122E1B20B481A70FFF7D3
:1005600013FE0A4B188002F01DFA094902F06EFAD8
:10057000084902F01FFB084B43F824000134032C08
:10058000E8D110BDC6050720C5050720C205072014
:100590003333534000F07F45D005072070470000FB
:1005A0002DE9F0412D4D86B02D4C2846FFF718FF60
:1005B00028462C4D22462C4902F00EFC2B4F2C4B8A
:1005C000DFF8EC8028462B490422FFF7EBFE05AE4E
:1005D00022462846284904AD02F0FEFB98F8003078
:1005E00026490322009501963846FFF703FE304660
:1005F000FFF7F7FE2846FFF7A7FE224638462049B8
:1006000002F0EAFB1F4A204F127898F800308DE87C
:1006100064001E4902223846FFF726FF3046FFF7E6
:10062000E0FE2846FFF790FE22463846184902F0C1
:10063000D3FB184B184D0093184B28460193184BC9
:1006400003210293174A184BFFF737FE2846174934
:10065000224602F0C1FB06B0BDE8F081C0050720CC
:100660002C000720DC050720E3030800C505072050
:100670003000072060000720490308004C000720D5
:100680004901080023010720C40507205C0007205A
:100690000904080014010720C805072024010720C9
:1006A00040000720580007202001072047030800CA
:1006B0003001072002484FF4165100F0A1BD00BFE1
:1006C000F4060720154B164A10B593421C4601D07C
:1006D000002301E0134B07E01349D0188842F9D2F8
:1006E000E158D1500433F7E7104A934203D2002275
:1006F00043F8042BF8E70E490E4B21F0604201F15C
:10070000604122F07F02B1F5801F9A6003D29A689F
:1007100042F000529A60084B9847FEE7A03C080060
:1007200000000720A4050720A4050720B80F072014
:100730000000080000ED00E06512080008B5024B5B
:100740001B6803B1984708BDE0050720704700000B
:10075000014800F059BD00BFF406072070477047FC
:1007600070470000014800F04FBD00BFA007072000
:10077000014800F049BD00BFC8070720014800F04C
:1007800043BD00BFF00707202DE9F0413F4D00F0C9
:1007900063FA2B684FF47A72B3FBF2F35A1E3C4BA8
:1007A000F0215A603B4A002482F8231007229C6003
:1007B0001A6002F021FBA84620460021013400F017
:1007C00083FB4F2CF8D1344C344E354F354B4FF022
:1007D000FF35C4F8A0504FF44072C6F8A050204630
:1007E000C3F8A05001210023C7F8A05000F085F9FC
:1007F0000020012100F068FB204601214FF44062F7
:10080000002300F07AF9204601214FF440520023E2
:1008100000F073F9384602213022002300F06DF910
:10082000304601214FF44062002300F066F9204673
:1008300001210322002300F060F901214FF440421E
:100840000023304600F059F9252000F0C7F8D8F809
:100850000010154A0C23154800F084F901231348B1
:1008600000214FF4401200F0DEF900210A460F4843
:1008700000F0C4F929460D4800F0EBF90B4800F0F0
:10088000E4F9BDE8F04100F08EBB00BF3401072061
:1008900010E000E000ED00E0000E0E4000100E4001
:1008A00000140E4000120E40002D310100000C40DB
:1008B0002DE9F743234D244C284600F0BBFB20468E
:1008C00000F0B8FBDFF8B490082213461F490095EA
:1008D00001941F4F1F4800F049FC1F4D484600F08F
:1008E000A9FBDFF89C80384600F0A4FB1B4E28468D
:1008F00000F0A0FB1A4C404600F09CFB304600F094
:1009000099FB204600F096FB11221346CDF800908B
:10091000CDF804801349144800F07AFB12221346E4
:10092000009701961149124800F072FB14220095BD
:10093000019410491346104800F06AFB03B0BDE86B
:10094000F08300BF180707206C06072000080E4040
:10095000000A0720F4060720880A07201808072045
:10096000A008072000800940A007072000C0094018
:10097000C807072000400A40F00707207809072031
:10098000E405072008B50C4800F070FB08B1FFF73C
:10099000DDFE0A4800F06AFB08B1FFF7DFFE0848F9
:1009A00000F064FB08B1FFF7DAFE064800F05EFBDA
:1009B00008B1FFF7D5FE08BDF4060720A007072001
:1009C000C8070720F0070720034B4FF44412DA61F1
:1009D0009A6E5206FCD5704700060E402C2819D896
:1009E0001F280E4B4FF0010208D802FA00F0996957
:1009F00000EA010282420FD018610DE0203802FAAD
:100A000000F0D3F8081100EA0102824204D0C3F8D2
:100A1000000101E0012070470020704700060E40F1
:100A20002C2817D81F280D4B4FF0010107D801FAC9
:100A300000F09A69024082420ED15A610CE02038DF
:100A400001FA00F0D3F808210240824204D1C3F831
:100A5000042101E0012070470020704700060E408D
:100A6000000200F47062024B42F001029A63704788
:100A700000060E40014B20221A60704700060E400F
:100A80000AB14166704701667047426405290DD876
:100A9000DFE801F00D03090D0D0D036F016F0B4031
:100AA00023EA020301E0036F1343036742607047C8
:100AB000D30741644CBF4166016612F00A0F14BFB0
:100AC00001624162930701D4130701D5C0F8801079
:100AD00041610160704710B5029C41640CB14166F0
:100AE00000E001660BB1016500E041650AB10163F8
:100AF00000E041630161016010BDF7B51E464B1E69
:100B000005460F461446042B1FD8DFE803F0030305
:100B10000C1212002246FFF7B8FFF2076C644CBFBC
:100B20006C662C6603E021463246FFF7C1FF0120C8
:100B30000CE006F0010300937B1F5A425A41214604
:100B4000C6F38003FFF7C7FFF1E7002003B0F0BD55
:100B500003468068084004D09B6919420CBF0020FE
:100B6000012070472DE9F041224D90B06C460646B9
:100B70000F4690469C460FCD0FC40FCD0FC40FCD2E
:100B80000FC495E80F0084E80F00012333600021B3
:100B90004FEA480240F202237160C6F82031C6F8DD
:100BA0000411C6F81411B7FBF2F102FB117202B97D
:100BB00001394B1C5B00B7FBF3F70F4B0022B7FB6F
:100BC000F3F70CFB07FC5DF82200604505D201320B
:100BD000102AF8D14FF0FF3009E07368090289B29A
:100BE0001204194302F470220A437260002010B00C
:100BF000BDE8F081983A080040420F004368D207F0
:100C000023F08F03436004D5436843F080034360BF
:100C10007047CB0706D5436801F00E0143F001038E
:100C200019434160704710B54468090622431B0709
:100C300001F07064224303F040531A43426010BD38
:100C4000012303FA01F1416170474FF6FF734361DD
:100C500070478162704700001A4A4FF48063136046
:100C6000C2F80032184B1A6AD20102D5174A1A622A
:100C700005E0174A1A629A6ED007FCD5F6E7996E1E
:100C8000114AC903FBD5116B21F0030141F00101A9
:100C900011639A6E1207FCD50E490B4A91629A6E47
:100CA0009007FCD5084A112111639A6E1107FCD5F3
:100CB000054A122111639A6E1207FCD5064A074BAA
:100CC0001A607047000A0E4000060E4009083701FE
:100CD00009083700013F0D2000BD01053401072040
:100CE00038B50B4BDC6CB4FA84F3DBB21F2B0DD898
:100CF000C3F11F03DDB2074B53F8253003B198470A
:100D0000012303FA05F524EA0504ECE738BD00BF2A
:100D1000000E0E40100B072038B50B4BDC6CB4FAFC
:100D200084F3DBB21F2B0DD8C3F11F03DDB2074BD9
:100D300053F8253003B19847012303FA05F524EA57
:100D40000504ECE738BD00BF00100E40900B0720F3
:100D500038B50B4BDC6CB4FA84F3DBB21F2B0DD827
:100D6000C3F11F03DDB2074B53F8253003B1984799
:100D7000012303FA05F524EA0504ECE738BD00BFBA
:100D800000120E40100C072038B50B4BDC6CB4FA87
:100D900084F3DBB21F2B0DD8C3F11F03DDB2074B69
:100DA00053F8253003B19847012303FA05F524EAE7
:100DB0000504ECE738BD00BF00140E40900C07207E
:100DC0002DE9F0413D4E1C2303FB00631A7B0446D2
:100DD0000F46002A70D03A4D2A5C02F00F02042A16
:100DE00003D13848597EFFF72BFF2A5D02F00F032D
:100DF000022B11DC82B1022B02D16FB9BDE8F08168
:100E0000012B03D1022F07D1BDE8F081032B03D1C1
:100E1000012F03D1BDE8F081012F32D01FB1022F85
:100E200017D0BDE8F0814FF01C0808FB04F806EB72
:100E30000807B868FFF7D2FD002356F80800032121
:100E40007A68FFF75AFE2B5D23F00F0343F002038D
:100E500014E04FF01C0808FB04F806EB0807B8681C
:100E6000FFF7BCFD012356F8080003217A68FFF75D
:100E700044FE2B5D23F00F0343F001032B55BDE827
:100E8000F0811C236343F75812091E440CBF042150
:100E90000521336938467268FFF72FFE2B5D23F07A
:100EA0000F0343F003032B55BB69013304D1B06832
:100EB000BDE8F041FFF7B4BDBDE8F0816C3008003B
:100EC0002809072000000C40F7B5194E1C2303FB2E
:100ED00000631B7B04460D4643B3164F3B5C03F097
:100EE0000F03052B02D10121FFF76AFF3B5D03F0E1
:100EF0000F0343EA05133B551C235C433319365952
:100F00005C6830462146FFF723FE38B9304621465B
:100F10002A4603B0BDE8F040FFF7B2BD01230093BD
:100F2000304621462A460023FFF7D5FD03B0F0BD29
:100F30006C30080028090720044B1A680AB9044AD3
:100F40001A601A681044186010467047100D072088
:100F5000B80F07204FF0FF3070474FF0FF30704759
:100F60004FF400534B600020704701207047002071
:100F7000704700207047000010B50023934207DA45
:100F800005484469A407FBD5CC5C0133C461F5E78F
:100F900022EAE27010BD00BF00080E40FEE7704775
:100FA0004FF0FF3070477047FEE701F03AB801F0AC
:100FB00038B808B501F033F828B900F013F8BDE8E7
:100FC000084001F00FB808BD014B1860704700BF22
:100FD00038010720024B4FF0FF321A60704700BF04
:100FE00038010720054A08B51368591C04D0013B95
:100FF00013600BB9024B984708BD00BF38010720AA
:1010000001000720012070474FF40C6200F0C0B8C7
:1010100073B5069D04460095079D0E46019500F0A8
:10102000A5F8034B20462360666202B070BD00BF86
:10103000E03A080010B500218022044601F004FFC8
:101040000023C4F880302046C4F8843010BDD0F8A6
:101050008030D0F88420013303F07F03934204D022
:10106000D0F880208154C0F8803070470369D3F8ED
:101070008000D3F88430C01A00F07F007047036905
:10108000D3F88010D3F8842091421DBFD3F8842078
:10109000985CC0B24FF0FF3070470369D3F88010FE
:1010A000D3F8842091420AD0D3F88420985CD3F8F6
:1010B0008420013202F07F02C3F8842070474FF091
:1010C000FF3070474369D3F88010D3F884209142F1
:1010D000F9D1826953699B05FCD57047836970B566
:1010E0005E694269B607D2F88450D2F8804001D5D3
:1010F000A54218D0D2F880400C4B01342340002B7D
:1011000003DA013B63F07F030133D2F884409C4251
:10111000FBD0D2F8804011554269C2F88030836913
:1011200002229A6000E0D961012070BD7F0000803A
:10113000036910B5D3F884200446C3F880200368FF
:101140005B699847237F012259B203F01F0302FA1B
:1011500003F34909044A203142F82130206ABDE8EE
:101160001040FFF75DBC00BF00E100E030B5002596
:1011700045604FF47A758560044D81610560039D7B
:1011800002770561049D0362456130BD103B080094
:1011900070B50446006A0D461646FFF71FFCA369AA
:1011A00040F20222C3F82021AC221A60124A5E608B
:1011B00012680121B2FBF5F52D094FF0FF321D62D7
:1011C000DA6061229A60227F50B202F01F0201FAB7
:1011D00002F20A49400941F8202021690022C1F8A1
:1011E0008420C1F880206169C1F88420C1F8802082
:1011F00050221A6070BD00BF3401072000E100E0FA
:101200004FF40062FFF7C4BF38B5836904465D69D7
:10121000EA0704D599690069C9B2FFF718FFAB075F
:1012200016D56369D3F88410D3F880209142A2695F
:101230000CD0D3F88410595CC9B2D161D3F88420A2
:10124000013202F07F02C3F8842001E00223D36060
:1012500015F0600F04D0A3691A6842F480721A6016
:1012600038BD704708B500F0EFFEFFF78DFAFFF7C5
:10127000F8FF012000F0C4FE064800F059F9FFF71E
:1012800019FAFFF78BF9044B002BFAD0FFF77AFB22
:10129000F7E700BF240D072085090800064BD3F8A7
:1012A0003021D20703D45B68D90703D4F6E70122C3
:1012B000C3F86021704700BF00C00A4038B5094B31
:1012C0001D6872B6BFF35F8F1C4600F00F0000234D
:1012D000236000F045FE25B101232360BFF35F8F3B
:1012E00062B638BD700107202DE9F8431B4B8946D3
:1012F0001B6815463BB31A4BD3F8008072B6BFF398
:101300005F8F00F00F04002620461F461E6000F08D
:1013100027FEA84238BF0546AE4206D0204600F060
:10132000E7FD09F806000136F6E71DB1204600F09A
:1013300017FE78B1B8F1000F09D001233B60BFF36D
:101340005F8F62B603E04FF0FF30BDE8F8832846B8
:10135000BDE8F883204600F00DFEEBE7300D0720D6
:101360007001072007B501220DF1070100F00F0001
:10137000FFF7BAFF01280CBF9DF807004FF0FF30C0
:1013800003B05DF804FB0000114B2DE9F0411B6830
:1013900080460D461746B3B114468CB1B8F1000F24
:1013A00014BF4FF400764026A64228BF26462946A1
:1013B00008F00F003246A41B00F046FD3544ECE770
:1013C0003846BDE8F0814FF0FF30BDE8F08100BF46
:1013D000300D07202DE9F0410C4B0D4F15461B88B1
:1013E0003A8888469A420BD22C46002644B108EB34
:1013F00006012246002000F027FD0644241AF5E7E6
:101400003B8828462B443B80BDE8F0812C0D07200B
:10141000140D0720F8B5012900AF06460C4628DD5B
:10142000CB1D23F00703ADEB030D01F057FD013099
:10143000400003238DF800006D468DF80130701ECA
:101440000222A2420DDA10F8013F53B1511CC9B279
:10145000A142AB5404D0002302326B54D2B2F0E765
:10146000224600202946FFF7B5FF003018BF0120B3
:1014700000E00020BD46F8BD38B50C46054600F03A
:10148000B3FC00202946224600F046FD00F0C0FCD7
:10149000204638BD037910B504461BB9BDE810409D
:1014A00000F08EBB00F0C4FA2146BDE8104000F009
:1014B000AFBA13B5002302AC04F8013D204600F09A
:1014C0006BFB00F0B5FA214600F072FA9DF80700B8
:1014D00002B010BD13B5002302AC04F8013D204654
:1014E00000F064FB00F0A4FA214600F061FA9DF8D8
:1014F000070002B010BD10B5044600F031FD20B168
:101500002046BDE8104000F049BD10BD10B50446AE
:10151000054800F09FFB00F0A3FB10B9034B01222C
:101520001A60204610BD00BF5D150800200D072081
:1015300008B5054B186828B100F0F2FB034B0022F8
:101540001A60012008BD00BF200D0720300D0720C4
:101550000148FFF7DBBF00BF240D07202DE9F0474E
:10156000AC4C88B063681F0717D52368002023F0B0
:101570007F032360236842F2320143F0800323603B
:1015800000F0F6FBA44B04221A604FF48053A361D1
:10159000A24B00221A600823A3609E4B5B685E0486
:1015A00008D59F4B02201860FFF788FE10B19D48B8
:1015B00000F0A4FA974B5A68550744BF04229A607A
:1015C0005B68DC0440F1E28100F02EFC002800F0B2
:1015D000DD81002001A9082200F09EFC00F02CFC17
:1015E0009DF80450280602D500F0F6FB01E000F05B
:1015F00003FC15F0600440F0B4819DF8053073B928
:101600009DF80440ACB1884B1B780020012B14BF1F
:101610000146012100F05AFC0020014697E1012B10
:101620000DD19DF80630012B01D1804BECE77E4BAC
:101630001C702046214600F049FC2046EDE7032BB4
:1016400075D19DF80630012B05D1784A20462146F8
:10165000137000F03BFC9DF8060028B9724B012284
:1016600001461A7000F032FC9DF80630022B40F063
:1016700085819DF80430002B40F08081BDF8083052
:10168000190740F07B81634C1B0A6269013B22F021
:1016900001026261226842F400622260032B00F2C0
:1016A0006D81DFE803F031383F02FFF7F7FD0023DB
:1016B000C4F81833C4F8283341F23013C4F80831A1
:1016C000D4F8083143F00203C4F80831514BD3F881
:1016D00038215203FAD5DA6942F00402DA61544B38
:1016E000544A9A5C03F8012F534A9342F8D1494B6C
:1016F0001A6842F400421A600122C3F868214FF4CC
:101700008042C3F82822FEE7FFF7C8FD236843F4B0
:1017100000532360FEE7FFF7C1FD236843F48043D5
:101720002360FEE7FFF7BAFD444B6361FEE7052B3C
:1017300006D100F051FB9DF8060000F043FC1DE1CE
:10174000062B40F0DC809DF807603D4D022EBDF871
:101750000A903C4F2C8028D13C80FFF7AAFE4FF026
:10176000090882462146424603A801F06DFB012389
:101770008DF81130C0238DF81330FA238DF8143012
:101780002B8803A9434442462046ADF80E308DF81D
:101790000C808DF80D608DF810A02C80A7F80090BB
:1017A000FFF718FEFFF785FEE8E0A7F8009000F0CD
:1017B0003FF901A900F010F9002803D0D4BF0020A0
:1017C0000120DAE0012E10D1BDF80A201E4B082AB4
:1017D00004BF0121196018681C491D4B002808BF6F
:1017E0001946112A00F2868048E0032E48D19DF860
:1017F000063033B91749BDF80A200B7893423DD81B
:1018000078E0022B01D1144833E0012B28D1134892
:101810002FE000BF00C00A40F0C10A40300D072091
:1018200068C10A404C0F0720160D07201C0D072029
:10183000FFFF18205B3BEFDF340019207FF0077EAD
:10184000140D07202C0D0720180D07209B3B0800C6
:10185000443B0800563B0800383B08008F3B08001B
:10186000032B40F08E8000F0E3F803A900F0C2F8EB
:1018700003A8BDF80A10FFF7CDFD7EE0D2B238E034
:10188000062E06D1BDF80A20092A7DD8D2B24149D8
:101890002FE0072E4FF0000473D1BDF80A902C8082
:1018A0003C80FFF717FE4FF009088246214642466A
:1018B00003A801F0C9FA01238DF81130C0238DF877
:1018C0001330FA238DF814302B8803A94344424681
:1018D0002046ADF80E308DF80C808DF80D608DF837
:1018E00010A02C80A7F80090FFF774FDFFF7F2FD21
:1018F00044E002B90A780020FFF76CFD3EE0072BB8
:101900003FD0082B04D1244B20461968C9B21EE0F1
:10191000092B17D1EB0634D10021204850F8213093
:101920000BB10131F9E700F039FA9DF806201A4BA6
:101930001A601B4B02221A604FF48042A3F5FC731D
:101940009A611BE00A2B05D1164B0020197800F094
:10195000BDFA13E00B2B11D19DF80620114B1A6034
:101960000CE000F039FA104B00211980BDF80A2074
:101970000E4B01A81A80FFF78DFD10B100F03CFA64
:1019800004E000F0E3FA01E00249B3E708B0BDE883
:10199000F08700BFAD3B0800300D07203C01072059
:1019A000F8C10A40280D0720140D07202C0D072030
:1019B00070B544680E4600254CB1236820465B682C
:1019C00031469847002804DB0544E468F4E72846DC
:1019D00070BD4FF0FF3070BD38B544680D463CB166
:1019E000236820469B682946984710B9E468F6E7C3
:1019F000204638BD38B544680D463CB123682046C2
:101A00002946DB689847E4680544F6E72C7038BD42
:101A100038B544680D463CB1236820461B6829460A
:101A2000984718B9E468F6E7204638BD012038BD6C
:101A3000074A136813F0010107D1064B0220187002
:101A4000042058705960012313600248704700BF9A
:101A50003C0D0720340D0720044BD3F80002D3F8C7
:101A60000432C01AC0F30800704700BF400D0720C1
:101A700040F2FF1070470000064BD3F80012D3F875
:101A8000042291421ABFD3F80422985C4FF0FF3031
:101A9000704700BF400D072013B5026802AB03F882
:101AA000011D546819460122A04702B010BD000074
:101AB00038B50F4B0446D3F80012D3F804229142F4
:101AC00013D0D3F8042202209D5CD3F80422013203
:101AD000C2F30802C3F80422FFF7F0FB18B1236831
:101AE0002046DB699847284638BD4FF0FF3038BDA7
:101AF000400D07200320FFF7FEBC0000F8B5184B8F
:101B000053E8003F164E13B1BFF32F8FF8BD0123EA
:101B100046E80033002BF2D1124BD3F800421F46A7
:101B20000134C4F30804D7F804320E4D9C4214D09B
:101B30000220FFF7C3FB20B90B4B4FF480421A6021
:101B40000BE00220FFF70EFCD5F80032C5F800428A
:101B50000134E854C4F30804E5E700233360F8BD1A
:101B6000480F0720400D072028C20A4010B5094B36
:101B70000446DB7903F0FF0043B10320FFF704FCC8
:101B8000002805DC01236360002010BD0123636091
:101B900010BD00BF680107200378034902330370BA
:101BA00042220020FFF716BC223C080003780349BC
:101BB0000233037042220020FFF70CBCE03B080018
:101BC00008B502784378A12A08D1212B4FF00000F4
:101BD00029D117490722FFF7FDFB25E0212A25D14E
:101BE000202B04D107211248FFF746FC1CE0222BD2
:101BF00010D182780E4BDA711A68B2F5966F13D154
:101C0000DB79DB0703D4FA20FFF7DEF90CE0FFF7FE
:101C1000E1F909E0232B09D18378C27843EA022253
:101C2000044B1A6000E008BD012008BD002008BD7B
:101C30006801072064010720044B00225A604FF41A
:101C40007A729A60024A1A60704700BF4C0F0720F0
:101C5000C03B0800014B1860704700BFE00507203B
:101C600010B500232A4A002442F82340294A42F8AA
:101C7000234001330A2BF5D12820FEF7AFFEFEF7F3
:101C8000A3FE2046FEF7ECFEFEF7F4FE224B4FF4D7
:101C9000807283F828435A60204B2046D3F80028EE
:101CA00022F08072C3F80028D3F8002842F00072B6
:101CB000C3F80028D3F8002822F08072C3F8002867
:101CC000D3F8002822F48052C3F80028D3F8002863
:101CD00042F48052C3F80028D3F8002842F40042AE
:101CE000C3F80028D3F8002822F48042C3F8002863
:101CF0001A6822F480521A601A6822F440621A604C
:101D0000D3F8002842F48042C3F8002810BD00BF79
:101D1000880F0720600F072000E100E000C00A40A4
:101D2000114B10B5196872B6BFF35F8F1A460023C6
:101D300013600E4BD3F800081C4620F48040C3F813
:101D40000008D4F80408094B4004FAD5186820F4B8
:101D5000807018600820986121B101231360BFF3DF
:101D60005F8F62B610BD00BF7001072000C00A403F
:101D7000094B00F00F0000F1400243F8221001224D
:101D80008240D9690A43DA6103F5987353F8203029
:101D90005B0300D4FEE7704700C00A4030B5012362
:101DA0008B4214D20A4A50F8045F03F1400442F80F
:101DB000245001249C40D5692C43D461054A1A441F
:101DC00092001268520300D4FEE70133E8E730BD09
:101DD00000C00A404CB00210024BD3F83031DB0790
:101DE000FAD5704700C00A40024BD3F830319B0748
:101DF000FAD5704700C00A40034B0122C3F86021A6
:101E0000024B00221A60704700C00A40880F07206A
:101E1000034B0222C3F86021024B00221A60704774
:101E200000C00A40600F0720024BD3F8300100F0D9
:101E30000400704700C00A40024B0422C3F860212E
:101E4000704700BF00C00A40F8B51546C20302F152
:101E50000052034602F5C012980000F1804000F5E0
:101E60002C24D4F83041E407F6D5174C3BB926684A
:101E70002E44402E06D92568C5F1400502E0002613
:101E800044F8236054F8236016440022AA4203D089
:101E90008F5CB7540132F9E754F823202A4444F800
:101EA000232033B9084B1B68402B0BD1FFF7A4FF4D
:101EB00008E000F52C230122C3F860214FF4804292
:101EC000C3F820222846F8BD880F0720074B53F897
:101ED000202002EBC03202F1005202F5C012117054
:101EE00053F82020013243F820207047880F072044
:101EF000084A034652F8201001EBC03101F10051AD
:101F000001F5C011087852F82310013142F823106E
:101F1000704700BF600F072070B50B4CC30303F17F
:101F2000005354F8205003F5C0131D44002393427E
:101F300003D0EE5CCE540133F9E754F8202013446B
:101F400044F8203070BD00BF600F0720034B012212
:101F5000DA614FF40022C3F8F021704700C00A4054
:101F6000034B4C3053F82000C0F30A50704700BFB9
:101F700000C00A40830003F1804303F52C230222B2
:101F8000C3F860214FF48042C3F82022024B0022A4
:101F900043F82020704700BF600F0720830003F143
:101FA000804303F52C230122C3F860214FF48042C3
:101FB000C3F82022024B002243F82020704700BFC4
:101FC000880F0720064B00F07F001A6822F07F027E
:101FD00002431A601A6842F080021A60704700BF1C
:101FE00000C00A40024B1A6801321A60704700BFF5
:101FF000B00F0720014B1868704700BFB00F0720D3
:1020000038B5044648B1FFF7F5FF054600F006F87D
:10201000FFF7F0FF401BA042F8D338BD7047002007
:102020007047FEE7F8B505460E4617460024BC4249
:1020300007D02B6828461B68315D984708B10134EA
:10204000F5E72046F8BD0000014800F003B800BFE6
:10205000501A0E404FF400434360704781F0004136
:1020600002E000BF83F0004330B54FEA41044FEA7D
:10207000430594EA050F08BF90EA020F1FBF54EA18
:10208000000C55EA020C7FEA645C7FEA655C00F0B4
:10209000E2804FEA5454D4EB5555B8BF6D420CDD85
:1020A0002C4480EA020281EA030382EA000083EA08
:1020B000010180EA020281EA0303362D88BF30BDA8
:1020C00011F0004F4FEA01314FF4801C4CEA1131FE
:1020D00002D0404261EB410113F0004F4FEA03335D
:1020E0004CEA133302D0524263EB430394EA050FE8
:1020F00000F0A780A4F10104D5F1200E0DDB02FA57
:102100000EFC22FA05F2801841F1000103FA0EF2EA
:10211000801843FA05F359410EE0A5F120050EF1B0
:10212000200E012A03FA0EFC28BF4CF0020C43FAE1
:1021300005F3C01851EBE37101F0004507D54FF0EE
:10214000000EDCF1000C7EEB00006EEB0101B1F53E
:10215000801F1BD3B1F5001F0CD349085FEA300084
:102160004FEA3C0C04F101044FEA445212F5800F8F
:1021700080F09A80BCF1004F08BF5FEA500C50F12C
:10218000000041EB045141EA050130BD5FEA4C0C0F
:10219000404141EB010111F4801FA4F10104E9D198
:1021A00091F0000F04BF01460020B1FA81F308BF8F
:1021B0002033A3F10B03B3F120020CDA0C3208DD5B
:1021C00002F1140CC2F10C0201FA0CF021FA02F136
:1021D0000CE002F11402D8BFC2F1200C01FA02F1A6
:1021E00020FA0CFCDCBF41EA0C019040E41AA2BFCB
:1021F00001EB0451294330BD6FEA04041F3C1CDA93
:102200000C340EDC04F11404C4F1200220FA04F0B2
:1022100001FA02F340EA030021FA04F345EA03015C
:1022200030BDC4F10C04C4F1200220FA02F001FA1E
:1022300004F340EA0300294630BD21FA04F02946A0
:1022400030BD94F0000F83F4801306BF81F4801139
:102250000134013D4EE77FEA645C18BF7FEA655CAC
:1022600029D094EA050F08BF90EA020F05D054EA7E
:10227000000C04BF1946104630BD91EA030F1EBF83
:102280000021002030BD5FEA545C05D14000494187
:1022900028BF41F0004130BD14F580043CBF01F57A
:1022A000801130BD01F0004545F0FE4141F4700160
:1022B0004FF0000030BD7FEA645C1ABF194610463B
:1022C0007FEA655C1CBF0B46024650EA013406BF3C
:1022D00052EA033591EA030F41F4002130BD00BFFB
:1022E00090F0000F04BF0021704730B54FF48064B8
:1022F00004F132044FF000054FF0000150E700BF39
:1023000090F0000F04BF0021704730B54FF4806497
:1023100004F1320410F0004548BF40424FF0000184
:102320003EE700BF42004FEAE2014FEA31014FEAC7
:1023300002701FBF12F07F4393F07F4F81F0605116
:10234000704792F0000F14BF93F07F4F704730B585
:102350004FF4607401F0004521F0004120E700BF18
:1023600050EA010208BF704730B54FF000050AE09F
:1023700050EA010208BF704730B511F0004502D5A0
:10238000404261EB41014FF4806404F132045FEAA2
:10239000915C3FF4DCAE4FF003025FEADC0C18BF47
:1023A00003325FEADC0C18BF033202EBDC02C2F13D
:1023B000200300FA03FC20FA02F001FA03FE40EACF
:1023C0000E0021FA02F11444C1E600BF70B54FF0CF
:1023D000FF0C4CF4E06C1CEA11541DBF1CEA1355B1
:1023E00094EA0C0F95EA0C0F00F0DEF82C4481EA19
:1023F000030621EA4C5123EA4C5350EA013518BF39
:1024000052EA033541F4801143F4801338D0A0FB25
:1024100002CE4FF00005E1FB02E506F00042E0FBD2
:1024200003E54FF00006E1FB03569CF0000F18BFD8
:102430004EF0010EA4F1FF04B6F5007F64F5407480
:1024400004D25FEA4E0E6D4146EB060642EAC62113
:1024500041EA55514FEAC52040EA5E504FEACE2E80
:10246000B4F1FD0C88BFBCF5E06F1ED8BEF1004F83
:1024700008BF5FEA500E50F1000041EB045170BDFF
:1024800006F0004646EA010140EA020081EA030143
:10249000B4EB5C04C2BFD4EB0C0541EA045170BD3F
:1024A00041F480114FF0000E013C00F3AB8014F1B9
:1024B000360FDEBF002001F0004170BDC4F1000402
:1024C000203C35DA0C341BDC04F11404C4F1200583
:1024D00000FA05F320FA04F001FA05F240EA0200DE
:1024E00001F0004221F0004110EBD37021FA04F614
:1024F00042EB06015EEA430E08BF20EAD37070BDCE
:10250000C4F10C04C4F1200500FA04F320FA05F02C
:1025100001FA04F240EA020001F0004110EBD3702E
:1025200041F100015EEA430E08BF20EAD37070BD9E
:10253000C4F1200500FA05F24EEA020E20FA04F377
:1025400001FA05F243EA020321FA04F001F0004126
:1025500021FA04F220EA020000EBD3705EEA430E97
:1025600008BF20EAD37070BD94F0000F0FD101F0C6
:102570000046400041EB010111F4801F08BF013CFF
:10258000F7D041EA060195F0000F18BF704703F03D
:102590000046520043EB030313F4801F08BF013DC4
:1025A000F7D043EA0603704794EA0C0F0CEA135580
:1025B00018BF95EA0C0F0CD050EA410618BF52EA3A
:1025C0004306D1D181EA030101F000414FF0000040
:1025D00070BD50EA410606BF1046194652EA43064E
:1025E00019D094EA0C0F02D150EA013613D195EAC2
:1025F0000C0F05D152EA03361CBF104619460AD10A
:1026000081EA030101F0004141F0FE4141F4700113
:102610004FF0000070BD41F0FE4141F4780170BD03
:1026200070B54FF0FF0C4CF4E06C1CEA11541DBF68
:102630001CEA135594EA0C0F95EA0C0F00F0A7F86A
:10264000A4EB050481EA030E52EA03354FEA013197
:1026500000F088804FEA03334FF0805545EA1313AA
:1026600043EA12634FEA022245EA111545EA106572
:102670004FEA00260EF000419D4208BF964244F109
:10268000FD0404F5407402D25B084FEA3202B61A28
:1026900065EB03055B084FEA32024FF480104FF4FC
:1026A000002CB6EB020E75EB030E22BFB61A754670
:1026B00040EA0C005B084FEA3202B6EB020E75EB03
:1026C000030E22BFB61A754640EA5C005B084FEA6B
:1026D0003202B6EB020E75EB030E22BFB61A754638
:1026E00040EA9C005B084FEA3202B6EB020E75EB43
:1026F000030E22BFB61A754640EADC0055EA060E04
:1027000018D04FEA051545EA16754FEA06164FEA46
:10271000C30343EA52734FEAC2025FEA1C1CC0D1F2
:1027200011F4801F0BD141EA00014FF000004FF07F
:10273000004CB6E711F4801F04BF01430020B4F140
:10274000FD0C88BFBCF5E06F3FF6AFAEB5EB030CF8
:1027500004BFB6EB020C5FEA500C50F1000041EBF5
:10276000045170BD0EF0004E4EEA113114EB5C04C2
:10277000C2BFD4EB0C0541EA045170BD41F4801195
:102780004FF0000E013C90E645EA060E8DE60CEA9D
:10279000135594EA0C0F08BF95EA0C0F3FF43BAFBA
:1027A00094EA0C0F0AD150EA01347FF434AF95EA71
:1027B0000C0F7FF425AF104619462CE795EA0C0F55
:1027C00006D152EA03353FF4FDAE1046194622E722
:1027D00050EA410618BF52EA43067FF4C5AE50EAFC
:1027E00041047FF40DAF52EA43057FF4EBAE12E7EC
:1027F0004A0011D212F5001211D20DD56FF4787380
:10280000B3EB62520ED44FEAC12343F0004343EAD4
:10281000505323FA02F070474FF00000704750EA1F
:10282000013002D14FF0FF3070474FF00000704789
:1028300080F0004002E000BF81F0004142001FBF75
:102840005FEA410392EA030F7FEA226C7FEA236C7E
:102850006AD04FEA1262D2EB1363C1BFD218414073
:1028600048404140B8BF5B42192B88BF704710F009
:10287000004F40F4000020F07F4018BF404211F0AC
:10288000004F41F4000121F07F4118BF494292EA14
:10289000030F3FD0A2F1010241FA03FC10EB0C0040
:1028A000C3F1200301FA03F100F0004302D54942CD
:1028B00060EB4000B0F5000F13D3B0F1807F06D37A
:1028C00040084FEA310102F10102FE2A51D2B1F172
:1028D000004F40EBC25008BF20F0010040EA030067
:1028E0007047490040EB000010F4000FA2F1010214
:1028F000EDD1B0FA80FCACF1080CB2EB0C0200FA9E
:102900000CF0AABF00EBC25052421843BCBFD040EB
:102910001843704792F0000F81F4000106BF80F465
:1029200000000132013BB5E74FEA41037FEA226C28
:1029300018BF7FEA236C21D092EA030F04D092F0F3
:10294000000F08BF0846704790EA010F1CBF002027
:10295000704712F07F4F04D1400028BF40F0004084
:10296000704712F100723CBF00F50000704700F0A4
:10297000004343F0FE4040F4000070477FEA2262CB
:1029800016BF08467FEA23630146420206BF5FEA9C
:10299000412390EA010F40F4800070474FF000039C
:1029A00004E000BF10F0004348BF40425FEA000C63
:1029B00008BF704743F0964301464FF000001CE00B
:1029C00050EA010208BF70474FF000030AE000BF61
:1029D00050EA010208BF704711F0004302D540429F
:1029E00061EB41015FEA010C02BF84460146002011
:1029F00043F0B64308BFA3F18053A3F50003BCFA2C
:102A00008CF2083AA3EBC25310DB01FA02FC6344D8
:102A100000FA02FCC2F12002BCF1004F20FA02F2DF
:102A200043EB020008BF20F00100704702F12002D2
:102A300001FA02FCC2F1200250EA4C0021FA02F233
:102A400043EB020008BF20EADC7070474FF0FF0C38
:102A50001CEAD0521EBF1CEAD15392EA0C0F93EA33
:102A60000C0F6FD01A4480EA010C400218BF5FEAD5
:102A700041211ED04FF0006343EA501043EA511148
:102A8000A0FB01310CF00040B1F5000F3EBF490042
:102A900041EAD3715B0040EA010062F17F02FD2A46
:102AA0001DD8B3F1004F40EBC25008BF20F0010029
:102AB000704790F0000F0CF0004C08BF49024CEA40
:102AC000502040EA51207F3AC2BFD2F1FF0340EAD2
:102AD000C250704740F400004FF00003013A5DDC43
:102AE00012F1190FDCBF00F000407047C2F1000284
:102AF000410021FA02F1C2F1200200FA02FC5FEA71
:102B0000310040F1000053EA4C0308BF20EADC70BA
:102B1000704792F0000F00F0004C02BF400010F42C
:102B2000000F013AF9D040EA0C0093F0000F01F0D9
:102B3000004C02BF490011F4000F013BF9D041EAFB
:102B40000C018FE70CEAD15392EA0C0F18BF93EAFD
:102B50000C0F0AD030F0004C18BF31F0004CD8D127
:102B600080EA010000F00040704790F0000F17BFAE
:102B700090F0004F084691F0000F91F0004F14D0F4
:102B800092EA0C0F01D142020FD193EA0C0F03D14C
:102B90004B0218BF084608D180EA010000F000404F
:102BA00040F0FE4040F40000704740F0FE4040F42A
:102BB000400070474FF0FF0C1CEAD0521EBF1CEAC9
:102BC000D15392EA0C0F93EA0C0F69D0A2EB0302E7
:102BD00080EA010C49024FEA402037D04FF0805381
:102BE00043EA111143EA10130CF000408B4238BF46
:102BF0005B0042F17D024FF4000C8B4224BF5B1A54
:102C000040EA0C00B3EB510F24BFA3EB510340EAA1
:102C10005C00B3EB910F24BFA3EB910340EA9C004F
:102C2000B3EBD10F24BFA3EBD10340EADC001B01BF
:102C300018BF5FEA1C1CE0D1FD2A3FF650AF8B4263
:102C400040EBC25008BF20F0010070470CF0004C70
:102C50004CEA50207F32C2BFD2F1FF0340EAC2509B
:102C6000704740F400004FF00003013A37E792F05C
:102C7000000F00F0004C02BF400010F4000F013ABA
:102C8000F9D040EA0C0093F0000F01F0004C02BFB5
:102C9000490011F4000F013BF9D041EA0C0195E71E
:102CA0000CEAD15392EA0C0F08D142027FF47DAFB7
:102CB00093EA0C0F7FF470AF084676E793EA0C0FA7
:102CC00004D14B023FF44CAF08466EE730F0004CA5
:102CD00018BF31F0004CCAD130F000427FF45CAF35
:102CE00031F000437FF43CAF5FE700BF4FF0FF3CA3
:102CF00006E000BF4FF0010C02E000BF4FF0010CF6
:102D00004DF804CD4FEA40024FEA41037FEA226CBE
:102D100018BF7FEA236C11D001B052EA530C18BFE0
:102D200090EA010F58BFB2EB030088BFC81738BF45
:102D30006FEAE17018BF40F0010070477FEA226C33
:102D400002D15FEA402C05D17FEA236CE4D15FEA2F
:102D5000412CE1D05DF8040B704700BF8446084663
:102D60006146FFE70FB5FFF7C9FF002848BF10F124
:102D7000000F0FBD4DF808EDFFF7F4FF0CBF012069
:102D800000205DF808FB00BF4DF808EDFFF7EAFFF3
:102D900034BF012000205DF808FB00BF4DF808EDAE
:102DA000FFF7E0FF94BF012000205DF808FB00BFA3
:102DB0004DF808EDFFF7D2FF94BF012000205DF829
:102DC00008FB00BF4DF808EDFFF7C8FF34BF012036
:102DD00000205DF808FB00BF03460846194600F0D6
:102DE00001B800BF10B40C4613460146224602202B
:102DF0005DF8044B00F0AAB870B50F4E0F4D761B6E
:102E0000B61007D0043D0024013455F8043F98471C
:102E1000A642F9D10A4E0B4D00F028FF761BB610E2
:102E200008D0043D0024013455F8043F9847A642D9
:102E3000F9D170BD70BD00BF783C0800783C080037
:102E4000903C0800783C0800F0B4840743D0541E3E
:102E5000002A3ED0CDB2034603E0621E002C38D0DB
:102E6000144603F8015B9A07F7D1032C2AD9CDB297
:102E700045EA05250F2C45EA054515D9A4F11007AB
:102E80003F0903F1100606EB07161A461560556058
:102E90009560D5601032B242F8D104F00F040137CA
:102EA000032C03EB07130DD91E462246043A032ACE
:102EB00046F8045BFAD8221F22F0030204321344BE
:102EC00004F003042CB1C9B21C4403F8011BA34253
:102ED000FBD1F0BC704714460346C6E720F003015F
:102EE00010F00300C0F1000051F8043B00F1040CA5
:102EF0004FEACC0C6FF000021CBF22FA0CF2134315
:102F00004FF0010C4CEA0C2C4CEA0C4CA3EB0C02DD
:102F100022EA030212EACC1204BF51F8043B043047
:102F2000F4D013F0FF0F1FBF013013F47F4F0130B7
:102F300013F47F0F18BF0130704700BF024B0A46E1
:102F40000146186800F07EB8A0050720F0B5274CB0
:102F500085B026680746D6F84841002C40D0656801
:102F60001F2D1EDD224818B94FF0FF3005B0F0BD0F
:102F70004FF4C870039102920193AFF3008003995C
:102F80000446029A019B0028EED0D6F84851002052
:102F9000256060600546C6F84841C4F88801C4F859
:102FA0008C013FB96B1C00200235636044F825108A
:102FB00005B0F0BD0126AE4004EB8500C0F88820C6
:102FC000D4F88821022F42EA0602C4F88821C0F80A
:102FD0000831E7D1D4F88C311E43C4F88C61E1E7A5
:102FE00006F5A674C6F84841B9E700BF683C08007A
:102FF00000000000024B13B1024800F005B8704712
:10300000000000001530080001460020024603467B
:10301000FFF79CBF38B5094D094C641BA41018BFBD
:1030200005EB840505D0013C55F8043D9847002C7C
:10303000F9D1BDE8384000F02BBE00BF9C3C080031
:10304000A03C080038B5084C002305460846114648
:103050002360FDF7A4FF431C00D038BD2368002B7C
:10306000FBD02B6038BD00BFB40F0720000E0E4010
:10307000000100000B000000010000000000000043
:1030800004000000FFFFFFFF000E0E4000020000E2
:103090000B00000001000000000000000400000020
:1030A000FFFFFFFF00100E40000000020C000000B8
:1030B000020000000000000014000000FFFFFF00FD
:1030C00000120E40000000100D0000000200000081
:1030D0000000000014000000FFFFFF0E00120E4071
:1030E000000000040D0000000200000000000000CD
:1030F00014000000FFFFFF0D00120E400000000250
:103100000D0000000200000000000000140000009C
:10311000FFFFFF0C00120E40000000010D00000038
:1031200002000000000000000C000000FFFF07FF8D
:1031300000120E40000080000D00000002000000A0
:10314000000000000C000000FFFF06FF00120E4010
:10315000000040000D000000020000000000000020
:103160000C000000FFFF05FF00120E4000002000D1
:103170000D00000002000000000000000C00000034
:10318000FFFF04FF00120E40000000200D000000B1
:10319000020000000000000014000000FFFFFF0F0D
:1031A00000140E40800000000E000000020000002D
:1031B0000000000014000000FFFFFF1000140E408C
:1031C000000100000E0000000200000000000000EE
:1031D00014000000FFFFFF1100100E400000000867
:1031E0000C000000020000000000000014000000BD
:1031F000FFFFFF0100140E40100000000E00000051
:10320000020000000000000004000000FFFFFFFFBC
:1032100000140E40200000000E000000020000001C
:103220000000000004000000FFFFFFFF000E0E4042
:10323000002000000B000000010000000000000062
:1032400004000000FFFFFFFF000E0E400010000012
:103250000B0000000100000000000000040000005E
:10326000FFFFFFFF000E0E40000800000B000000F3
:10327000010000000000000004000000FFFFFFFF4D
:10328000000E0E40000400000B00000001000000D2
:103290000000000004000000FFFFFFFF00100E40D0
:1032A000001000000C000000010000000000000001
:1032B00004000000FFFFFFFF00100E400020000090
:1032C0000C000000010000000000000004000000ED
:1032D000FFFFFFFF00100E40000000040C00000084
:1032E000040000000000000004000000FFFFFFFFDA
:1032F000000E0E40004000000B0000000400000023
:103300000000000004000000FFFFFFFF000E0E4061
:10331000008000000B00000004000000000000001E
:1033200004000000FFFFFFFF00140E40010000003A
:103330000E00000004000000000000000400000077
:10334000FFFFFFFF00140E40020000000E0000000F
:10335000040000000000000004000000FFFFFFFF69
:1033600000140E40040000000E00000004000000E5
:103370000000000004000000FFFFFFFF00140E40EB
:10338000080000000E000000040000000000000023
:1033900004000000FFFFFFFF00140E40400000008B
:1033A0000E00000004000000000000000400000007
:1033B000FFFFFFFF00140E40000200000E0000009F
:1033C000040000000000000004000000FFFFFFFFF9
:1033D000000E0E40800000000B0000000400000002
:1033E0000000000004000000FFFFFFFF00140E407B
:1033F000000400000E0000000400000000000000B7
:1034000004000000FFFFFFFF00120E40020000005A
:103410000D00000004000000000000000400000097
:10342000FFFFFFFF00120E40040000000D0000002F
:10343000040000000000000004000000FFFFFFFF88
:1034400000120E40080000000D0000000400000003
:103450000000000004000000FFFFFFFF00120E400C
:10346000100000000D00000004000000000000003B
:1034700004000000FFFFFFFF00120E4020000000CC
:103480000D00000004000000000000000400000027
:10349000FFFFFFFF00120E40400000000D00000083
:1034A000040000000000000004000000FFFFFFFF18
:1034B00000120E40800000000D000000040000001B
:1034C0000000000004000000FFFFFFFF00120E409C
:1034D000000100000D0000000400000000000000DA
:1034E00004000000FFFFFFFF00120E40000200007A
:1034F0000D000000040000000000000004000000B7
:10350000FFFFFFFF000E0E40000008000B00000050
:10351000040000000000000004000000FFFFFFFFA7
:10352000000E0E40000010000B0000000400000020
:103530000000000004000000FFFFFFFF00120E402B
:10354000000008000D000000040000000000000062
:1035500004000000FFFFFFFF00120E400000040007
:103560000D00000004000000000000000400000046
:10357000FFFFFFFF00120E40000002000D000000E0
:10358000040000000000000004000000FFFFFFFF37
:1035900000120E40000001000D00000004000000B9
:1035A0000000000004000000FFFFFFFF00120E40BB
:1035B000008000000D00000004000000000000007A
:1035C00004000000FFFFFFFF00120E40004000005B
:1035D0000D000000040000000000000004000000D6
:1035E000FFFFFFFF00120E40002000000D00000052
:1035F000040000000000000004000000FFFFFFFFC7
:1036000000120E40001000000D0000000400000039
:103610000000000004000000FFFFFFFF00100E404C
:10362000000020000C00000004000000000000006A
:1036300004000000FFFFFFFF00100E4000400000EC
:103640000C00000004000000000000000400000066
:10365000FFFFFFFF000E0E40000001000B00000006
:103660000300000000000000020000000007FFFF50
:10367000000E0E40000000010B00000003000000DF
:1036800000000000020000000106FFFF000E0E40D7
:10369000000080000B00000003000000000000009C
:1036A000020000000205FFFF000E0E400000400077
:1036B0000B000000030000000000000002000000FA
:1036C0000304FFFF000E0E40400000000B0000004E
:1036D0000300000000000000020000000403FF05DA
:1036E000000E0E40100000000B0000000300000060
:1036F00000000000020000000502FFFF000E0E4067
:10370000080000000B0000000300000000000000A3
:10371000020000000601FF03000E0E40040000003E
:103720000B00000003000000000000000200000089
:103730000700FF0200100E40000002000C00000015
:10374000030000000000000002000000080AFFFF64
:1037500000100E40000004000C00000003000000F8
:103760000000000002000000090BFFFF00100E40E7
:10377000000008000C000000030000000000000032
:10378000020000000A0CFFFF00100E4000001000B5
:103790000C00000003000000000000000200000018
:1037A0000B0DFFFF00100E40008000000C00000019
:1037B0000300000000000000020000000C10FFFFEA
:1037C00000100E40000001000C000000030000008B
:1037D00000000000020000000D11FFFF000E0E406F
:1037E000020000000B0000000100000000000000CB
:1037F000040000000EFFFFFF000E0E40010000005D
:103800000B000000010000000000000004000000A8
:103810000FFFFFFF000E0E40000002000B00000033
:10382000010000000000000004000000FFFFFFFF97
:10383000000E0E40000004000B000000010000001C
:103840000000000004000000FFFFFFFF00120E4018
:10385000000000400D000000040000000000000017
:1038600004000000FFFFFFFF000E0E4000002000DC
:103870000B00000004000000000000000400000035
:10388000FFFFFFFF000E0E40000000020B000000D3
:10389000010000000000000004000000FFFFFFFF27
:1038A000000E0E40000000040B00000001000000AC
:1038B0000000000004000000FFFFFFFF000E0E40AC
:1038C000000000080B0000000100000000000000E4
:1038D00004000000FFFFFFFF000E0E40000000107C
:1038E0000B000000010000000000000004000000C8
:1038F000FFFFFFFF00100E40000080000C000000E2
:10390000020000000000000004000000FFFFFFFFB5
:10391000000E0E40000006000B0000000100000039
:103920000000000005000000FFFFFFFF00100E4038
:10393000003000000C00000001000000000000004A
:1039400005000000FFFFFFFF000E0E400003000017
:103950000B00000001000000000000000500000056
:10396000FFFFFFFF000E0E40000C00000B000000E8
:10397000010000000000000005000000FFFFFFFF45
:10398000000E0E40003000000B000000010000009F
:103990000000000005000000FFFFFFFF00140E40C4
:1039A000300000000E0000000200000000000000D7
:1039B00005000000FFFFFFFF00100E40000C00009C
:1039C0000C000000010000000000000004000000E6
:1039D000FFFFFFFF00100E40000020000C00000061
:1039E000020000000000000004000000FFFFFFFFD5
:1039F000000E0E40000000200B000000010000003F
:103A00000000000004000000FFFFFFFF00100E4058
:103A1000008000000C000000010000000000000019
:103A200004000000FFFFFFFF00100E4000400000F8
:103A30000C00000001000000000000000400000075
:103A4000FFFFFFFF000E0E40030000000B00000010
:103A5000010000000000000005000000FFFFFFFF64
:103A600000100E4000C000000C000000010000002B
:103A70000000000005000000FFFFFFFF0000000045
:103A80000000000000000000000000000000000036
:103A900000000000FFFFFFFF000000000800000022
:103AA000100000001800000040000000500000005E
:103AB00060000000700000000002000040020000F2
:103AC00080020000C002000000030000400300006C
:103AD00080030000C00300000000000000000000A0
:103AE000DD100800252008006D1008009B1008005C
:103AF0007F100800C51008000910080031110800E7
:103B00000510080000000000000000000000000098
:103B1000DD100800252008006D1008009B1008002B
:103B20007F100800C51008000112080031110800BC
:103B3000051008000000000041726475696E6F2076
:103B400044756500120100020000004041233E0060
:103B50000001010203010403090400000000000049
:103B6000000000AAAAAAAAAAAAAAAAEEEEEEEEEE5F
:103B7000EEEEEEFEFFFFFFFFFFFFFFFFFFFFFF7F09
:103B8000BFDFEFF7FBFDFC7EBFDFEFF7FBFD7E4104
:103B9000726475696E6F204C4C430012010002EF95
:103BA00002014041233E000001010203010A060018
:103BB00002000000400100000000000000000000C2
:103BC000991A08006D1B0800591A0800B11A08005C
:103BD000791A0800F51A0800711A0800FD1A080081
:103BE000080B0002020201000904000001020200A9
:103BF000000524001001052401010104240206052A
:103C000024060001070581031000100904010002C9
:103C10000A00000007050202400000070583024079
:103C20000000080B0002020201000904000001026A
:103C300002000005240010010524010101042402F2
:103C40000605240600010705810310001009040180
:103C500000020A00000007050202000200070583B7
:103C6000020002004300000078010720F8B500BF01
:103C7000F8BC08BC9E467047F52F080019010800E3
:103C8000A1050800B108080051150800391C0800FA
:103C9000F8B500BFF8BC08BC9E467047F5000800A8
:103CA00072B6064B9A68D107FBD5054A5A609A68E6
:103CB000D207FCD5034A044B1A60FEE7000A0E4007
:103CC0000C01005A050000A5001A0E40000000007B
:103CD00000140E4000140E4000140E4000140E405C
:103CE000A5020800A5020800B902080002000400AD
:103CF00008000000295CCF3F03050300010002001B
:103D00000200000004000000080000004000000065
:103D1000295C0FBE295C0FBF9A99193E9A99593FA9
:103D2000295C0FBE3333733F295C0F3ECDCCCCBD35
:103D30007B14AEBE8FC275BD0AD7C33F7B14AEBE27
:103D40003333B3BE14AEC73ECDCC4CBD295C8F3EE1
:103D50000AD783BF0AD7233F0AD723BFD7A3F0BE12
:103D6000B81E85BF7B146EBF14AE47BFB81E453F5B
:103D70000000803E0AD7A3BE0000803E8FC275BE01
:103D8000E17A14BF0AD7833FA4709DBF7B14AE3E77
:103D9000C3F5A83E295CAF3F7B142EBE295C0F3FC4
:103DA000AE4761BECDCC4CBEF6285CBF8FC2B53FDE
:103DB000295C0F3E90000720CC0007200801072057
:103DC0000503011870000720840007205400072015
:103DD0000100000000093D00FFFFFFFF322000004E
:103DE0003639000066300000663100000000000037
:103DF00000000000000000000000000000000000C3
:103E000000000000FFFFFFFF00E1000000000800CD
:103E10000100000000000000000000006404072012
:103E2000CC0407203405072000000000000000003B
:103E30000000000000000000000000000000000082
:103E4000000000000000000000000000643C0800CA
:103E50000000000000000000000000000000000062
:103E60000000000000000000000000000000000052
:103E70000000000000000000000000000000000042
:103E80000000000000000000000000000000000032
:103E90000000000000000000000000000000000022
:103EA0000000000000000000000000000000000012
:103EB0000000000000000000000000000000000002
:103EC00001000000000000000E33CDAB34126DE69F
:103ED000ECDE05000B000000000000000000000008
:103EE00000000000000000000000000000000000D2
:103EF00000000000000000000000000000000000C2
:103F000000000000000000000000000000000000B1
:103F100000000000000000000000000000000000A1
:0442400078010720DA
:04000003800006C5AE
:00000001FF
